:020000040800F2
:1000000000090020A10400081514000819140008B4
:10001000551400081914000835140008A30400083A
:10002000A3040008A3040008A3040008C5360008C0
:10003000A3040008A3040008A3040008593A000818
:10004000A3040008A3040008A3040008A3040008F4
:10005000A3040008A3040008393800086538000824
:1000600091380008BD380008E9380008A3040008EA
:10007000A3040008A3040008A3040008A3040008C4
:10008000A3040008A3040008A304000869250008CD
:10009000D5250008292600087D2600081539000806
:1000A000A3040008A3040008A3040008A304000894
:1000B000A3040008A3040008A3040008A304000884
:1000C000A3040008A3040008A3040008A304000874
:1000D000A3040008A12A0008B52A0008A304000808
:1000E0007D390008A3040008A3040008A304000845
:1000F000A3040008A3040008A3040008A304000844
:10010000A3040008A3040008A3040008A304000833
:10011000A3040008A3040008A3040008A304000823
:10012000A3040008A3040008A3040008A304000813
:10013000A3040008A3040008A3040008A304000803
:10014000A3040008A3040008A3040008A3040008F3
:10015000A3040008A3040008A3040008A3040008E3
:10016000D0400B1CD1409C46203AD3401843524209
:1001700063469340184370479140031C90409C464F
:10018000203A9340194352426346D3401943704783
:1001900053B94AB9002908BF00281CBF4FF0FF31EE
:1001A0004FF0FF3000F07AB9ADF1080C6DE904CEE4
:1001B00000F006F8DDF804E0DDE9022304B0704742
:1001C0002DE9F0478C460E460446089D002B50D181
:1001D0008A4217466CD9B2FA82FEBEF1000F0BD0EC
:1001E000CEF1200C01FA0EF620FA0CFC02FA0EF702
:1001F0004CEA060C00FA0EF43A0CBCFBF2F9BBB266
:1002000002FB19CC09FB03FA4FEA144848EA0C46F2
:10021000B2450AD9F61909F1FF3180F02581B245BE
:1002200040F22281A9F102093E44A6EB0A06B6FB80
:10023000F2F002FB106600FB03F3A4B244EA0644AA
:10024000A34209D9E41900F1FF3280F00B81A342E7
:1002500040F2088102383C440021E41A40EA094097
:10026000002D62D0002324FA0EF42C606B60BDE8F0
:10027000F0878B4207D9002D55D0002185E8410039
:100280000846BDE8F087B3FA83F1002940F08F807B
:10029000B34202D3824200F2FC80841A66EB03066A
:1002A0000120B446002D40D085E81010BDE8F0874D
:1002B00012B90127B7FBF2F7B7FA87FEBEF1000FBC
:1002C00035D10121F61B4FEA174C1FFA87F8B6FB10
:1002D000FCF20CFB126608FB02F0230C43EA064614
:1002E000B04207D9F61902F1FF3302D2B04200F250
:1002F000D2801A46361AB6FBFCF00CFB106608FBDF
:1003000000F8A3B243EA0644A04507D9E41900F176
:10031000FF3302D2A04500F2B9801846A4EB0804CE
:1003200040EA02409CE729462846BDE8F08707FAE4
:100330000EF7CEF1200326FA03F24FEA174CB2FB78
:10034000FCF11FFA87F80CFB112206FA0EF620FAD0
:1003500003F301FB08F933431E0C46EA0246B1459C
:1003600000FA0EF409D9F61901F1FF3280F08C8001
:10037000B14540F2898002393E44A6EB0906B6FB3E
:10038000FCF00CFB106200FB08F99EB246EA024644
:10039000B14507D9F61900F1FF3371D2B1456FD9D4
:1003A00002383E44A6EB090640EA01418FE7C1F15D
:1003B000200722FA07F88B4048EA030326FA07F4DD
:1003C0004FEA134EB4FBFEF91FFA83FC0EFB1944EF
:1003D0008E4020FA07F809FB0CFA48EA06084FEAB3
:1003E000184646EA0444A24502FA01F200FA01F670
:1003F00008D9E41809F1FF3044D2A24542D9A9F145
:1004000002091C44A4EB0A04B4FBFEF00EFB1044EA
:1004100000FB0CFC1FFA88F848EA0444A44507D9FD
:10042000E41800F1FF3E29D2A44527D902381C4424
:1004300040EA0940A0FB0289A4EB0C0CCC45C24663
:10044000CE4615D312D055B1B6EB0A036CEB0E06AF
:1004500006FA07F7CB401F43CE402F606E600021A5
:10046000BDE8F0871046F7E68946DEE64645EAD263
:10047000B8EB020A69EB030E0138E4E77046D7E7F0
:1004800018468FE78146BDE7114676E702383C44BF
:1004900044E7084606E7023A3E442BE7704700BFB0
:1004A00002E000F000F8FEE772B6274880F3088803
:1004B000264880F3098826484EF60851CEF20001FE
:1004C0000860022080F31488BFF36F8F03F02AF9CD
:1004D00003F046F94FF055301E491B4A91423CBF8C
:1004E00041F8040BFAE71C49184A91423CBF41F815
:1004F000040BFAE719491A4A1A4B9A423EBF51F8BF
:10050000040B42F8040BF8E700201749174A914200
:100510003CBF41F8040BFAE703F008F903F022F9B5
:10052000134C144DAC4203DA54F8041B8847F9E726
:1005300000F03AF8104C114DAC4203DA54F8041BA9
:100540008847F9E703F0F0B8000900200011002007
:10055000000000080001002000090020C041000840
:1005600000110020741100207811002000260020C6
:1005700060010008600100086001000860010008D7
:100580002DE9F04FC1F80CD0C3689D46BDE8F08F4F
:10059000002383F311882846A047002002F07EFE46
:1005A00002F0A8FD00DFFEE76FF01702364B2DE9E1
:1005B000F0411A70032200245A7001266FF0630282
:1005C0009C70DC701C715C719C71DC711C725A72C5
:1005D0009E72DC7203F020F8804603F06DF8054649
:1005E000D0BB2A4B984539D03344984537D0284B57
:1005F00028F0FF029A4234D15FFA88F000F04EFAF8
:100600002E4642F2107400F077FC00F04DFA0746D7
:1006100058B364BB374635B11E4B984503D0002410
:1006200003F042F82746002003F000F81A4B9B68BD
:1006300013F040031ED00FB100F030F800F07EFC44
:1006400000F018FE00F014FF0546ACB900F0CCFC39
:10065000012002F029FEF8E70646D4E706462C46BC
:10066000D1E706464FF47A74CDE70446D3E74FF45A
:100670007A74D0E71C46E1E700F0FAFE401BA04286
:10068000E4D900F00BF8DDE778110020010007B095
:10069000000008B0263A09B0000C014010B51C4B10
:1006A0001C4953F8042F013200D110BD8B42F8D100
:1006B000194C1A4B22689A4228D9194B9B6803F1AE
:1006C000006303F5C8439A4220D202F0C1FF02F052
:1006D000D3FF002000F0E8FD0220124B187000F05C
:1006E0001FFE114BDA690022DA61D96999699A61B2
:1006F0009B6972B60D4B0E4A202113601B6822685D
:1007000081F311889D4683F30888104710BD00BF10
:10071000FC6300081C64000804640008FF63000810
:1007200078110020841100200010024000640008AD
:1007300008ED00E049F2690008490B689AB21B0C09
:1007400000FB02330B6044F25061054A136898B213
:100750001B0C01FB0030106080B270470C110020B0
:100760000811002010B504460021102200F0F4FD0D
:10077000034B03CB206061601868A06010BD00BF10
:10078000E8F7FF1FF0B5BBB000F072FE1D4CA36888
:10079000C31AF92B30D906AD2346A06028220021C8
:1007A000284601F0F3FB04F10E0000F0CDFD00231C
:1007B000C6B2591D5F1CDBB2B3424FEAC10107DA72
:1007C0000E3323440822284601F0E0FB3B46F0E7C5
:1007D00001230393082302930B4B207B01933023C7
:1007E000C1F3CF0105910093014604A3D3E900238F
:1007F0000495064801F09AF93BB0F0BD78F6339FB6
:1008000093CACD8DC8210020D5210020A021002031
:1008100070B50D4614461E4601F02EF950B9022E51
:100820000ED1012C0CD112A3D3E90023C5E900237A
:10083000012070BD052C14D003D8012C09D0002054
:1008400070BD282C09D0302CF9D10BA3D3E900239B
:10085000ECE70BA3D3E90023E8E70BA3D3E90023DC
:10086000E4E70BA3D3E90023E0E700BFAFF3008088
:10087000401DA12026812A0B78F6339F93CACD8D87
:100880009E6AC421818A46EE26417272DF25D7B75F
:10089000F017304A39059E5638B50D4604460346D2
:1008A00020222846002101F071FB22792346032AE9
:1008B00028BF0322284603F8042F2021022201F03A
:1008C00065FB62792346072A28BF0722284603F8DA
:1008D000052F2221032201F059FBA2792346072A82
:1008E00028BF0722284603F8062F2521032201F0FE
:1008F0004DFB284604F108031022282101F046FB95
:10090000382038BD2DE9F04FADF5017D21AE0EAD9B
:1009100040F2791280460F463046002100F01CFD5F
:1009200048220021284600F017FD00F0A1FD4FF4F9
:100930007A72B0FBF2F0574B0DF15A09186093E848
:10094000070001232B74002385E807000DF15A00EE
:100950006B74FFF707FF032385F82030E82385F841
:10096000213006AB18464C4903F0E0F81F222864FA
:100970003146284685F83C20FFF78EFF12AB04462F
:1009800001460822304601F001FB08220DF149031F
:10099000A118304601F0FAFA0DF14A03082204F1D9
:1009A0001001304601F0F2FA13AB202204F11801D5
:1009B000304601F0EBFA14AB402204F13801304626
:1009C00001F0E4FA16AB082204F17801304601F098
:1009D000DDFA0DF15903082204F18001304601F0DF
:1009E000D5FA04F1880A04F5847B4B465146082267
:1009F00030460AF1080A01F0C9FAD34509F10109A4
:100A0000F3D11BAB08225946304601F0BFFA4FF034
:100A1000000904F5887495F834304B4510D84FF030
:100A2000000995F83C304B4515D92B6C21464B44B9
:100A30000822304601F0AAFA083409F10109F0E76A
:100A4000AB6B21464B440822304601F09FFA083434
:100A500009F10109DFE7E31DC3F3CF03F97E059335
:100A6000002304960393BB7E193702930123019759
:100A70000093404605A3D3E9002301F057F80DF594
:100A8000017DBDE8F08F00BFAFF300809E6AC421F6
:100A9000818A46EE88110020043D0008014B187041
:100AA000704700BF94110020F0B5334B85B01C7B1C
:100AB00034B10E22314B1A810024204605B0F0BD1E
:100AC0002F4A02AB1068516803C308232D490DEB70
:100AD00003022D4803F00CF8054630B90A22274BD3
:100AE0002A481A8100F08CFCE6E70169B1F5CE3F97
:100AF00006D90B22214B26481A8100F081FCDCE745
:100B0000438BB3F57A7F09D00C211C4A214811810F
:100B10004FF47A72194600F073FCCEE71E4A024485
:100B200002F11003994204D21022144B1B481A817F
:100B3000E3E710398E1A2046134900F09DFC074662
:100B4000324605F11801204600F096FCAB689F4242
:100B500002D1EB6898420AD00D22084B1A8100900E
:100B60003B46EA68A9680E4800F04AFCA4E70D4835
:100B700000F046FC0124A0E7C821002088110020D5
:100B8000D43B0008DC9B010000640008DC3B00084B
:100B9000E83B0008FA3B0008089CFFF7183C0008F7
:100BA000353C00085E3C00082DE9F04FADB006AFC3
:100BB00080460C4600F060FF054600286AD1237E7F
:100BC000022B18D1E38A012B15D100F051FC81468C
:100BD000FFF7B0FD4FF4C873B0FBF3F202FB130054
:100BE000BB4E80B209F51679E37E484430608BB97C
:100BF0000022B84B1A709C37BD46BDE8F08F3B1DF4
:100C00001D440095002308224FEAC901204601F047
:100C100021F84D46A38A5FFA85F9013BAB420BD917
:100C200005F10109B9F1110FE9D140F23911AA4BCF
:100C3000AA4AAB4802F02EFF07F11400FFF792FD1D
:100C40002A4607F11401381D02F042FF034600282E
:100C5000CED1B9F1100F07D09E4B83F800903368C6
:100C6000A3F516733360C6E707F1980202F8950DF5
:100C7000014600922046072200F0ECFFF9787F2918
:100C800004DD984B954A4FF4A871D2E7404600F036
:100C9000D7FEB0E7E38A052B00F0068106D8012BCA
:100CA000A9D121464046FFF72DFEA4E7282B3DD0D1
:100CB000302BA0D1637E8C4D01336A7BDBB2934233
:100CC000E94640F0EF80E27E2B7B9A4240F0EA80DA
:100CD000002607F1980323F8846D00931022012366
:100CE0003146204600F0B6FFB4F81480A8F102089F
:100CF0001FFA88F808F1030323F003030A3323F0F3
:100D00000703ADEB030D0DF1180A33469BB2B11C7E
:100D100098454FEAC10106F101066CDD534400938A
:100D200008220023204600F095FFEEE7A38A013B4E
:100D30009BB2C92B3FF65FAF6B4E357B4DBB06F1C7
:100D40000C03009308222B462946204600F082FF20
:100D5000A38A05F10109013BEDB29D424FEAC901A9
:100D600009DA0E353544009500230822204600F0AC
:100D700071FF4D46ECE700230022C6E90023002363
:100D8000B36086F8D730C6F8D830337B0BB9E37E32
:100D90003373002507F114063B1D0822294630460F
:100DA0007D60BD60FD6001F0F1F83B7A05F101095D
:100DB000AB424FEAC90107D9FB6808222B443046F1
:100DC00001F0E4F84D46F0E70023C1F3CF01E07EE7
:100DD000059104960393A37E1934029328230146B8
:100DE0000093019438A3D3E90023404600F09EFE0F
:100DF000FFF7C8FCFFE695F8D70000F05FFAD5F8DA
:100E0000D83006461BB995F8D70000F067FAD5F838
:100E1000D83043449E4204D295F8D700013000F008
:100E20005DFA00244FEA980BA0B2584504F1010482
:100E300008DA2B6880000AEB00010122184400F058
:100E400093FAF1E7D5F8D840D5E9002312EB080270
:100E500043F10003444495F8D700C5E90023C5F8E1
:100E6000D84000F02BFA844209D395F8D7300133EB
:100E700085F8D730D5F8D8309E1BC5F8D860B8F1C2
:100E8000FF0F08DC00232B7300F03AFAFFF70CFE8B
:100E900008B1FFF703FC2B68144A9B0A0133138146
:100EA0000023AB60CD46A6E6BFF34F8F1049114B30
:100EB000CA6802F4E0621343CB60BFF34F8F00BFF8
:100EC000FDE700BFAFF3008026417272DF25D7B780
:100ED0009C21002099210020703C0008243D00083E
:100EE000C93C0008EB3C0008C82100208811002004
:100EF00000ED00E00400FA0508B54FF000530B4A7E
:100F0000196891420AD1597D094A0A4811701B7D1E
:100F1000C922037308490E3000F00CFABDE80840FE
:100F2000E02200214FF0005000F016BA9AAD44C5FF
:100F300094110020C821002016000020022330B5A3
:100F40001F4C85B0637104230025ADF808300123E0
:100F50000722ADF80C501B498DF80C308DF80B3082
:100F6000194B1A484B608DF80A2001F0FFFD184B11
:100F7000019500931749184B4FF48052174800F021
:100F800029FD174B2546197811B1144800F058FD7A
:100F900000F06EFA0446FFF7CDFB4FF4C873B0FBC8
:100FA000F3F202FB130304F516749BB21C440D4BC1
:100FB0001C6002F081FB08B10F232B8105B030BD0E
:100FC000881100200011002003000600E02200200C
:100FD0001108000898110020A90B0008A02100208A
:100FE000941100209C2100202DE9F04F96A7D7E90D
:100FF00000670FF25C29D9E900898F4C93B0DFF8C4
:1010000058B2DFF858A2204600F0DCFD0CAD079086
:1010100098B310220021284600F09EF94FF00002FC
:10102000079B197B61F3030219468DF8302051F8B4
:10103000040F0EAA496803C21B680D9A584663F351
:101040001C029DF830300D9243F020038DF83030B3
:1010500000232A46194601F099FD079030B9204631
:1010600000F0B4FD079B8AF80030CCE79AF8003016
:10107000072B40DC01338AF8003018220021284673
:1010800000F06AF9DFF8D0B1DFF8D4A100232A46D6
:101090001946584601F0A2FD014680BB102208A85F
:1010A00000F05AF9DAF80C3083F01003CAF80C306B
:1010B00000F0E0F90DF1240E0B4612A9024611E9E9
:1010C00003008EE803009DF83410C1F30300890685
:1010D00049BF0E99BDF83810C1F31C0141F0004121
:1010E00058BFC1F30A018DF82C000891204608A9C9
:1010F00000F0B2FFCAE7204600F068FDBDE72046D9
:1011000000F0BAFC824600284AD100F0B1F9DFF8BD
:1011100054B1DBF80030984242D300F0A9F90790AF
:10112000FFF708FB4FF4C873B0FBF3F101FB1300AA
:10113000079A80B202F516721044CBF80000DFF86F
:1011400028B18DF820A09BF8001011B901238DF86B
:10115000203028460791FFF705FB07990DF1210084
:10116000C1F1100A5FFA8AFABAF1060F28BF4FF0F0
:10117000060A2944524600F0DDF80AF101030493FF
:1011800008AB0393182302932C4B3246019301239F
:10119000204600933B4600F071FC00238BF80030A2
:1011A00000F066F9264ADFF8C4A01368C31AB3F545
:1011B0007A7F32D3106000F05DF902460B4620467C
:1011C00000F00AFD204600F057FC30B39AF80C30CE
:1011D000DFF89CB0002B14BF032302238BF80530EB
:1011E00000F046F94FF47A73B0FBF3F02946CBF8E0
:1011F00000005846FFF750FB18230293114B0730AD
:10120000019340F25513C0F3CF000490009303956F
:1012100042464B46204600F031FC9AF80C300BB1A8
:10122000FFF7B0FA9AF80C30002B7FF4E8AE13B059
:10123000BDE8F08FAFF30080A021002098210020AE
:10124000A8220020AC220020401DA12026812A0BCC
:10125000F1C6A7C1D068080FE0220020AD2200200F
:10126000000801409C21002099210020C821002075
:101270008811002070B502F0CDF80025084C094E09
:10128000207030682378834208D902F0BFF83368B1
:1012900005440133B5F5C84F3360F2D370BD00BFCC
:1012A000DC220020B022002002F04CB900F10060E6
:1012B000920000F5C84002F0F1B80000054B1A6832
:1012C000054B1B789B1A834202D9104402F09EB84A
:1012D00000207047B0220020DC22002038B50446F0
:1012E000064D2868204402F097F828B92868204461
:1012F000BDE8384002F0A2B838BD00BFB0220020DF
:10130000064991F8243033B100230822086A81F895
:101310002430FFF7CBBF0120704700BFB42200206C
:10132000022802BF4FF48012014B1A61704700BFC0
:1013300000080140002310B5934203D0CC5CC45494
:101340000133F9E710BD000002460346981A13F96D
:10135000011B0029FAD1704703460244934202D090
:1013600003F8011BFAE770472DE9F047234C0546C7
:1013700094F824308846174683BB2E46DFF87C90CD
:10138000C7B394F824302BB92022FF2148462662A7
:10139000FFF7E2FF94F824004146C0F10805BD4282
:1013A00028BF3D465FFA85FAAD002A4604EB80006F
:1013B000FFF7C0FF94F82430A7EB0A079A445FFABE
:1013C0008AFABAF1080F2E44A844FFB284F824A088
:1013D000D6D1FFF795FF0028D2D108E0266A06EBA8
:1013E0008306B042CAD0FFF78BFF0028C5D100208A
:1013F000BDE8F0870120BDE8F08700BFB4220020DF
:101400000FB4002004B070470FB44FF0FF3004B0A9
:1014100070470000FEE70000EFF30983EFF3058358
:10142000034B9A6B9A6A9A6A9A6A9A6A9B6AFEE76F
:1014300000ED00E0EFF30983EFF30583044B9A6BB3
:101440009A6A9A6A9A6A9A6A9A6A9B6AFEE700BFDF
:1014500000ED00E0EFF30983EFF30583034B5A6BD4
:101460009A6A9A6A9A6A9A6A9B6AFEE700ED00E0B5
:1014700002F0A0B802F07AB830B5084D0A449142A3
:101480000BD0092411F8013B5840013CF7D040F340
:1014900000032B4083EA5000F7E730BD2083B8ED0E
:1014A0000246006848B1036811891360D38801338C
:1014B0009BB29942D38038BF1381704770B5044600
:1014C0000D4688B0202200216846FFF745FF2046E0
:1014D0000495FFF7E5FF054658B16B46044608AE94
:1014E0001A4603CAB24220606160134604F1080440
:1014F000F6D1284608B070BD2DE9F04130B940F270
:10150000C531264B264A274802F0C4FA0B7C23B982
:10151000254B234A40F2C631F5E7C66986B9C16159
:10152000BDE8F081002B29DA930CAB4229D1B442FB
:1015300001D10C60F3E7C8F800100C60BDE8F08141
:101540004B68B04623F06047BD0C15EA230538BF51
:101550003D4634464FEAD37EC3F3807C6368BEEBDE
:10156000D37F23F06042DDD1974203D1C3F3807370
:101570009C450AD1974205E01C46EFE7AA4206D0F7
:1015800013469D422CBF00230123002BCFD123689B
:10159000A046002BF0D12160BDE8F081F83F0008A3
:1015A000EC3D0008B0400008D140000808B5034AEF
:1015B000034B40F25E31034802F06CFAC83D00086C
:1015C00070400008B040000808B503680B60C3888D
:1015D000016033B9044B054A4FF4C761044802F077
:1015E00059FA013BC38008BD404000083C3E00085A
:1015F000B040000870B50C4600F10C05616831B9C7
:10160000E38A002061F30903E382002170BD0E68C4
:101610002846FFF7D9FF6660F0E7000008B542688A
:1016200032B10B4B0B4A40F22F410B4802F032FA19
:10163000C37DC3F38401013161F38603C375C38A9B
:1016400062F30903C3821B0A62F3C713C37508BDA3
:101650008C400008F83D0008B04000082DE9F04734
:10166000089E32B91F4B204A40F239511F4802F000
:1016700011FA4FF47F4901F007054FEAD6082A44D2
:1016800006F0070600EBD100954201D1BDE8F087D6
:1016900005F0070E06F0070AD645774638BF5746CD
:1016A000511BC7F108078F4228BF0F46EC08045DA5
:1016B00008EBD60113F801C004FA0EF429FA07FE6C
:1016C00024FA0AF45FFA8EFE8CEA04044EFA0AFE4B
:1016D00004EA0E048CEA040C03F801C03D443E44C5
:1016E000D2E700BF0C400008103E0008B0400008E0
:1016F0002DE9F04106460F4600254FF6FF7441F2F2
:1017000021082A4630463946FEF72AFD0823C0B292
:1017100084EA002414F4004F4FEA4404A4B203F115
:10172000FF3318BF84EA080413F0FF03F2D1083531
:10173000402DE6D12046BDE8F081000010B541F211
:1017400021040A44914200D110BD11F8013B80EA06
:101750000320082310F4004F4FEA400080B203F149
:10176000FF3318BF604013F0FF03F3D1EAE7000036
:101770002DE9F04F85B08A468DE80C00BDF83C405D
:10178000814630B940F26E31484B494A494802F02F
:1017900081F911F0604F04D0474B454A40F26F3158
:1017A000F4E7009B002B7ED024B10E9B002B7AD057
:1017B000072C28D809F10C00FFF772FE054628B95E
:1017C0006FF00205284605B0BDE8F08F1422002115
:1017D000FFF7C2FD22460E9905F10800FFF7AAFDAA
:1017E000631C2B74009B2C441B78294603F01F03B9
:1017F00063F03F0323724AF000436B604846FFF7F3
:101800007BFE0125DEE74FF000084FF0800B4646D7
:101810004546019B1B0A029300F10C0303930398B6
:10182000FFF73EFE07460028CAD014220021FFF72A
:1018300093FDB6BB02229DF804303B729DF8083040
:101840007B720E9B711E1944B4420AD9B81801323A
:1018500011F801EFD2B20136072A80F808E0B6B2DB
:10186000F2D1B44208BF4FF0400B009BB818197872
:10187000013201F01F0141EA48114BEA01030372F2
:101880004AF000437B603A7439464846FFF734FE1D
:101890000135B4422DB288F001084FF0000BBED1E3
:1018A00090E70022CDE76FF001058BE7F83F0008D5
:1018B000DC3D0008B04000081C4000082DE9F0475E
:1018C0001E46CB8A9146C3F30902062A80460F467C
:1018D00019D013460021B0B28DB25A1992B2052A1E
:1018E00009D9A84210D8FA8A034463F30902FA829C
:1018F0000120BDE8F087A842F3D919F801403A4425
:1019000094760131E8E70025FB8A7C68C3F309007F
:101910001C23821FB2FBF3FA03FB1A2A1FFA8AF276
:101920007CB301212368002B39D1B31F03441C2051
:10193000B3FBF0F301339BB299420CD2BAF1000F22
:1019400009D14046FFF7ACFD08B1C0F800A0206007
:1019500008B3044600224FF0000AB6B2B54230D2B6
:101960001346691E4944E018013311F801EF9BB298
:1019700001351C2B80F804E0ADB214D0AE42F2D891
:10198000ECE74046FFF78CFD044608B100230360F6
:101990007C60002CDED16FF00200BDE8F0870131E1
:1019A00089B21C46BEE7AE42D8D94046FFF778FD63
:1019B00008B1C0F800A020600028ECD00446002246
:1019C000CCE7FB8AC3F30902164466F30903FB82E2
:1019D0008EE70000F8B50E4615461F46044628B9A6
:1019E000144B154A4F21154802F054F824220021C7
:1019F000FFF7B2FC069B6A096360079B0020236225
:101A00004FF6FF739A4228BF1A46A7602070A06164
:101A1000E06197B204F10C05824205D100232B60EE
:101A200027826382A382F8BD2E60013035462036BE
:101A3000F2E700BFF43F0008683D0008B04000082E
:101A400008B528B97321084B084A094802F022F862
:101A5000037823B94BB2002B01DD017008BD054BA3
:101A6000024A7D21F1E700BFF83F0008743D0008FD
:101A7000B04000083C3F0008007870472DE9F7436C
:101A80000D9E074619461046BDF828900B9D9DF8FF
:101A90003040BDF8388016B9B8F1000F43D11F2C83
:101AA00041D83B78D3B9B8F1070F39D839F00303DF
:101AB00039D1424631464FF6FF70FFF73FFE4FEAFD
:101AC000092920F0010009F44079400449EA04643E
:101AD000400C44EA40244FF6FF730DE043EA09232B
:101AE000B8F1070F43EA0464F5D9FFF701FE424657
:101AF0003146FFF723FE03468DE840012A46214682
:101B00003846FFF735FE0DB9FFF750FD2B7801334E
:101B1000DBB21F2B88BF00232B7003B0BDE8F0831E
:101B20006FF00300F9E76FF00100F6E72DE9F743E6
:101B30000E9F81460B9D9DF830009DF83480BDF8C6
:101B40003C6007B9C6BB1F2836D899F800E0BEF143
:101B5000000F34D00C0244F080049DF8281044EAB1
:101B6000C83444EA014444EA0E04072E44EA0064FF
:101B700015D919461046FFF7BBFD32463946FFF727
:101B8000DDFD0346019600972A4621464846FFF7A9
:101B9000EFFDB8F1010F0CD125B9FFF707FD4FF6A6
:101BA000FF73EFE72B780133DBB21F2B88BF0023D5
:101BB0002B7003B0BDE8F0836FF00100F9E76FF020
:101BC0000300F6E7C06900B104307047C1690C300A
:101BD0000B680361FFF7F8BC2DE9F84FD0F818A0A7
:101BE000054616461F4654464FF00009DFF8608050
:101BF00000F10C0B0CB9BDE8F88FD4E90223B21A3E
:101C000067EB0303994508BF90451FD2AB69214696
:101C10009C4228460DD1FFF7EDFCAB6921461B68BD
:101C20005846AB61FFF7D0FCAC692346A2461C4680
:101C3000E0E7FFF7DFFC23682146CAF8003058468A
:101C4000FFF7C2FC5446DAF80030EFE72368EDE70F
:101C500080841E002DE9F04F8BB00D46144607938B
:101C6000DDF850908246002800F06481B9F1000F41
:101C700000F06081531E3F2B00F25C81012A03D1EA
:101C8000079B002B40F056810023BAF8146008939C
:101C9000F600B542099380F053812B199E420AD277
:101CA000761B16F0FF0607D140F26751AA4BAB4AEC
:101CB000AB4801F0EFFE2646DAF80C3023B9DAF82B
:101CC0001030002B00F0A5802F2D31D8C5F1300841
:101CD00046454FF0000334BFB0465FFA88F80093E2
:101CE000294608AB4246DAF80800FFF7B7FCA6EB36
:101CF00008074544FFB24FF0300BBAF8143003F137
:101D00000053063BDB000293DAF80C300593059B89
:101D1000002B51D087B9DAF81000002861D0002FCD
:101D20005FD0AB4550D98F4B8C4A40F2A651BFE7EC
:101D300037464FF00008DEE7029B23B98A4B874AFB
:101D40004FF4B161B4E7029BE02B28BFE023069378
:101D50005B44AB4204931DD95B1B9F4226BFDBB2A1
:101D600003930397AB4504D97E4B7C4A40F29151D3
:101D70009EE70598CDF8008008ABA5EB0B01039A10
:101D80000430FFF76BFC039B9844FF1A1D445FFA75
:101D900088F8FFB2049B9B4504D3744B6F4A40F212
:101DA0009B5185E7029B069ADDF810B09B1A0293BF
:101DB000059B1B680593AAE7029BBB42ABD26C4B09
:101DC000664A40F2A15173E7CDF800803A46A5EB90
:101DD0000B0108ABB8443D44FFF740FC00275FFA15
:101DE00088F8BAF81430B5EBC30F04D9614B5B4ADD
:101DF00040F2B1515CE7B8F1400F04D95E4B574A4D
:101E000040F2B25154E767B15C4B544A40F2B351CF
:101E10004EE70093324608AB2946DAF80800FFF790
:101E20001DFC731E3F2B35B201D8A64204DD544B76
:101E3000544A40F235213BE760070AD00AAB03EB76
:101E4000D40111F8083C624202F00702134101F884
:101E5000083C082C21D9102C21D9202C8CBF082318
:101E60000423079A002A6DD0B4EBC30F6CD0082C62
:101E700004F1FF3215D89DF8203023FA02F2D10781
:101E800006D54FF0FF3202FA04F423438DF82030D8
:101E90009DF8203089F800304EE00123E1E702236D
:101EA000DFE7102C11D8BDF8203023FA02F2D20758
:101EB00006D54FF0FF3202FA04F42343ADF8203088
:101EC000BDF82030A9F8003036E0202C0ED8089953
:101ED00021FA02F2D30705D54FF0FF3303FA04F4D9
:101EE0000C430894089BC9F8003025E0402C1CD016
:101EF000DDE9086730463946FEF732F9002100F087
:101F0000010050EA01030BD0224601200021FEF718
:101F100033F9404261EB410106430F43CDE90867C5
:101F2000DDE90823C9E9002306E0174B154A4FF401
:101F30002071BDE66FF0010528460BB0BDE8F08FBB
:101F40001D46F9E7012CA3D0082CA1D9102CB7D934
:101F5000202CE5D8C6E700BF483E0008203E000818
:101F6000B04000086A3E0008573E00088F3E000857
:101F7000B73E0008DE3E00080C3F0008243F000882
:101F80003E3F0008A03D00083C3F000830B585B04A
:101F900030B940F2B121234B234A244801F07AFDA5
:101FA00023B9234B204A40F2B221F6E7402A04D954
:101FB000204B1D4A40F2B621EFE722B91D4B1A4AC9
:101FC0004FF42F71E9E70024012A0294039417D1FA
:101FD0001B788DF8083053070AD004AB03EBD2030B
:101FE00013F8084C554205F00705AC4003F8084CBF
:101FF00000910346002102A8FFF730FB05B030BD79
:10200000082AE5D9102A03D81B88ADF80830E2E782
:10201000202A02D81B680293DDE7D3E90045CDE909
:102020000245D8E7783F0008B43D0008B0400008FA
:10203000933F00083C3F000870B50C4600F10C05CA
:10204000E16819B9A1602161A18270BD0E682846BE
:10205000FFF7BAFAE660F3E72DE9F04FD1F8009008
:1020600091B0C9F3C01604460D46CDE90223002EF7
:1020700050D0C9F3C03BC9F30626B9F1000F80F276
:102080009F8119F0C04F40F09B812B7B002B00F00B
:102090009781BBF1020F03D02278B24240F09381C6
:1020A00009F07F02BBF1020F059236D119F07F0FC4
:1020B000C9F30F2A01D10AF0030A2B447606059AC8
:1020C00093F8038046EA0B4646EA82465FEAD81355
:1020D00046EA0A06069300F09A800022002310A91F
:1020E00061E90823059B6768009352465B462046DA
:1020F000B847002800F08880A7698FB9314604F1FD
:102100000C00FFF7DBF90746D0B96FF0020011B001
:10211000BDE8F08F4FF0020BAFE7C9F3074ACCE7F9
:102120003B699E420DD03F68002FF9D1314604F142
:102130000C00FFF7C3F907460028E6D0A3693B600F
:10214000A761DDE90801FFF7D3FAB882F97D08F04D
:102150001F06C1F38401711A89B20FFA81FEBEF124
:10216000000FB8BF01F1200EC9F30461D7E90223C3
:10217000B8BF0FFA8EFE079152EA030100F02F81DB
:10218000DDE90201801A61EB03010B4600210246E2
:102190009E48994208BF9042C0F02181069B002BC7
:1021A0003FD0BEF1010F00F31A8118F0400F38D074
:1021B000DDE90223C7E90223202200210DEB020002
:1021C000FFF7CAF8DDE90223CDE908232B1D0A93A6
:1021D0002B7B2046013BDBB2ADF834309DF81C3040
:1021E000ADF836A08DF83A309DF814308DF838B03F
:1021F0008DF83B308DF83960A36808A998473846B8
:10220000FFF70CFA002082E76FF00B007FE7A76969
:1022100017B96FF00C007AE73B699E4296D03F6891
:10222000F6E7FB7DC8F34012B2EBD31F40F0CE803F
:10223000C3F38403B34240F0CC8006992B7B4FEA72
:10224000981279B3D2073CD4032B40F2C580DDE964
:102250000223C7E902232B7BAE1D033BDBB23246D0
:10226000394604F10C00FFF729FB002808DA39464B
:102270002046FFF7BFF93846FFF7D0F9032046E7BD
:10228000AB883B832A7B033AD2B2B88A3146FFF748
:1022900055FAFB7DB882DA43C2F3C01262F3C7136A
:1022A000FB75AFE76AB92E1D013BDBB232463946FA
:1022B00004F10C00FFF702FB0028D8DB2A7B013A6F
:1022C000E2E7FA8A013BC2F30902052AD9B250D8E3
:1022D0000023281D99420AD907EB020E10F801CB02
:1022E00001320133062A8EF81AC0DBB2F2D18B42DA
:1022F00028BF0023DDE9028907F11A02CDE9088928
:102300000A927A683CBF04335B190B920C93FB8AE8
:10231000ADF836A0C3F3090319449DF81C30ADF89D
:1023200034108DF83A309DF814308DF838B08DF8AF
:102330003B3000238DF839607B602A7BB88A013AF4
:10234000291DFFF7FBF93B8BB882834203D1A368B9
:1023500008A92046984708A92046FFF76DFE384691
:10236000FFF75CF9B88A3B8B984214BF112000201C
:10237000CDE6786810B34FF0060E03689BB9A2EB68
:102380000E021B2A13D80332024405F1040E1F303B
:102390009942ACD91EF801CB013302F801CF90422B
:1023A000DBB2F5D1A3E70EF11C0E1846E5E7184B9A
:1023B000184A40F2B311184801F06CFB034696E747
:1023C0006FF00900A3E66FF00A00A0E66FF00D00C1
:1023D0009DE66FF00E009AE66FF00F0097E6FB7D2A
:1023E000394668F386036FF3C713FB752046FFF782
:1023F00001F9069B002B7FF4D8AEFB7DC3F384026A
:10240000013262F38603FB7503E700BF80841E0080
:10241000A83F00088C3D0008B04000082DE9F041BD
:102420004E4EB04240F086804D4CDFF838E1E56911
:1024300045F00075E561E469846AD4F8007207EA42
:102440000E0747F00107C4F80072D4F8005205EAFD
:102450000E0545F0010545EA0121C4F80012002AE5
:102460006AD000210F46C4F81C12C4F80412C4F844
:102470000C12C4F8141204EBC10501310E29C5F881
:102480004072C5F84472F6D14FF0000E4FF0010CC7
:10249000964510D1826AB042D2F8003223F001038F
:1024A000C2F8003258D12E4BDA6922F00072DA619C
:1024B000DB69BDE8F0819F781D8817F0010F18BF18
:1024C000D4F804820CFA05F11CBF41EA0808C4F8EC
:1024D000048217F0020F18BFD4F80C8204EBC50574
:1024E0001CBF41EA0808C4F80C827F0748BFD4F833
:1024F000147203F10C0344BF0F43C4F8147253F871
:10250000087C0EF1010EC5F8407253F8047CC5F842
:102510004472D4F81C522943C4F81C12B8E70021B5
:10252000846AC4F81C12C4F80412C4F80C12C4F86B
:102530001412A9E7002AF2D10022836AC3F84022CC
:10254000C3F84422C3F80422C3F814220122C3F8BA
:102550000C22C3F81C229DE7BDE8F081E022002098
:10256000001002400000FFFF184A08B5916A8B680E
:102570008B6013F0010105D013F00C0F14BF4FF462
:1025800080310121D80506D513F4406F14BF41F402
:10259000003141F00201D80306D513F4402F14BFD7
:1025A00041F4802141F00401D3690BB107489847F9
:1025B000202383F311880021054800F09DFE0023AD
:1025C00083F31188BDE8084001F086B8E0220020BE
:1025D000E822002038B5124CA36ADD68AA0712D0A1
:1025E0005A6922F002025A61A36913B101212046FF
:1025F0009847202383F3118800210A4800F07CFECD
:10260000002383F31188EB0606D51021A36AD96055
:10261000236A0BB102489847BDE8384001F05CB826
:10262000E0220020F022002038B5124CA36A1D6978
:10263000AA0712D05A6922F010025A61A36913B195
:10264000022120469847202383F3118800210A485D
:1026500000F052FE002383F31188EB0606D510210B
:10266000A36A1961236A0BB102489847BDE8384054
:1026700001F032B8E0220020F022002038B50F4CE3
:10268000A36A5D682A075D600AD5032222701A6872
:1026900022F002021A60636A13B1002120469847B3
:1026A0006B0706D5A36A9969236A13B10904034825
:1026B0009847BDE8384001F00FB800BFE022002085
:1026C00010B50F4C204600F03FFA0E4B0B211320A3
:1026D000A36200F019FA0B21142000F015FA0B2167
:1026E000152000F011FA0B21162000F00DFA00233E
:1026F0002046BDE810401A460E21FFF78FBE00BFEE
:10270000E0220020006400400F4B10B598420446C0
:1027100005D10E4BDA6942F00072DA61DB69012201
:10272000A36A1A60A36A5A68D20707D5626851681B
:102730001268D9611A60064A5A6110BD0121082049
:1027400000F092FCEEE700BFE02200200010024003
:102750005B87010003291AD8DFE801F0020A0F1491
:10276000836A9B6813F0E05F14BF0120002070476C
:10277000836A9868C0F380607047836A9868C0F382
:10278000C0607047836A9868C0F30070704700208B
:102790007047000010B503291FD8DFE801F0021FC1
:1027A0002327816A8B68C3F30163183301EB03139A
:1027B000107881061ED55468C0F30011490041EA23
:1027C000C40141F0040100F00F005860906841F02E
:1027D00001019860D268DA60196010BD836A03F560
:1027E000C073E5E7836A03F5C873E1E7836A03F51D
:1027F000D073DDE79488C0F30011490041EA4451E9
:10280000E1E7000001290CD003D3022910D00020F9
:102810007047836ADA68920701D1186903E00120E2
:102820007047836AD86810F0030018BF0120704712
:10283000836AF2E710B539B9836AD96889071BD171
:102840001B699B0704D110BD012915D0022948D16D
:10285000816AD1F8C031D1F8C401D1F8C8411461FE
:10286000D1F8CC41546120240C610C69A40717D124
:102870004C6944F0100412E0816AD1F8B031D1F80B
:10288000B401D1F8B8411461D1F8BC41546120249D
:10289000CC60CC68A40703D14C6944F002044C61BD
:1028A00011795C0864F304119C0864F345111171FB
:1028B00089064BBF91681189DB085B0D4CBF63F340
:1028C0001C0163F30A01137948BF916060F30303AD
:1028D00013714FEA10234FEA104058BF1181137053
:1028E000508010BD00231A4610B51C495A50CC1810
:1028F0000833802B6260F9D1194B9A6942F07D024E
:102900009A619B690268174BDA6082685A60426874
:102910001A60C26803F58063DA6042695A6002692E
:102920001A608269C3F80C24026AC3F80424C269DD
:10293000C3F80024426AC3F80C28C26AC3F804280A
:10294000826AC3F80028026BC3F80C2C826BC3F8B0
:10295000042C426BC3F8002C10BD00BF0C230020D8
:102960000010024000080140026843681143016002
:1029700003B1184770470000024AD36843F0C00310
:10298000D360704700380140024AD36843F0C00367
:10299000D3607047004400402DE9F041D0F89C60BE
:1029A0000546F7683368DA059CB20DD5202383F31A
:1029B00011884FF400710430FFF7D6FF6FF4807375
:1029C0003360002383F31188202383F3118805F1FA
:1029D000040814F02F0333D183F31188380615D57A
:1029E000210613D5202383F3118805F1380000F068
:1029F0002FFA002846DA0821281DFFF7B5FF4FF609
:102A00007F733B40F360002383F311887A060ED571
:102A100063060CD5202383F31188EA6C2B6D9A4250
:102A200002D12B6C002B2FD1002383F31188D5F812
:102A3000A420D368002B31D0BDE8F04110691847BD
:102A4000230713D014F0080F0CBF00218021E007EA
:102A500048BF41F02001A20748BF41F04001630791
:102A600048BF41F480714046FFF77EFFA4067368BB
:102A700005D595F8A0102846194000F089FA346869
:102A8000A4B2A6E77060BEE727F040073F0410211C
:102A9000281D3F0CFFF768FFF760C5E7BDE8F08130
:102AA00008B50348FFF778FFBDE8084000F014BE02
:102AB0008C23002008B50348FFF76EFFBDE80840EF
:102AC00000F00ABE3424002010B5094C094A204603
:102AD000002100F03DFA084B084AC4F89C30084C2D
:102AE0000021204600F034FA064BC4F89C3010BD9B
:102AF0008C2300207929000800380140892900082A
:102B0000342400200044004000F16043090103F533
:102B10006143C9B283F80013012300F01F0240098A
:102B2000800000F16040934000F56140C0F88031C2
:102B300003607047090100F16040C9B200F56D40C3
:102B400001767047FFF7BCBD01230370002300F13D
:102B500008028260C26000F11002436002614261BB
:102B60008361C361036243627047000010B5202394
:102B7000044683F31188022341600370FFF7C4FD0C
:102B800003232370002383F3118810BD2DE9F04146
:102B90001F4604460D461646202383F3118800F194
:102BA00008082378042B0ED029462046FFF7D2FDD3
:102BB00048B1204632462946FFF7ECFD002080F35D
:102BC0001188BDE8F0813946404600F079FB0028C5
:102BD000E7D0002383F31188BDE8F0812DE9F041AF
:102BE0001F4604460D461646202383F3118800F144
:102BF00010082378042B0ED029462046FFF702FE4A
:102C000048B1204632462946FFF714FE002080F3E3
:102C10001188BDE8F0813946404600F051FB00289C
:102C2000E7D0002383F31188BDE8F081F8B515469D
:102C300082680B46AA428169066938BF8568761AA0
:102C4000B542044607D218462A46FEF773FBA3692D
:102C50002B44A3610DE011D932461846FEF76AFBFA
:102C6000AF1B3A46E1683044FEF764FBE2683A4441
:102C7000A261A36828465B1BA360F8BD18462A46DC
:102C8000FEF758FBE368E4E72DE9F04104461546FA
:102C900083682669934238BF856840690F46361AB3
:102CA000B54206D22A46FEF745FB63692B446361B1
:102CB0000DE012D93246A5EB0608FEF73BFB424673
:102CC000B919E068FEF736FBE26842446261A36826
:102CD00028465B1BA360BDE8F0812A46FEF72AFB6D
:102CE000E368E4E710B50024C361029B0A44006076
:102CF00040608460C160816141610261036210BD16
:102D000008B582694369934201D1826882B98268B9
:102D1000013282605A1C42611970426903699A4209
:102D200001D3C3684361002100F0DAFA002008BD36
:102D30004FF0FF3008BD000070B5202304460E465A
:102D400083F31188A568A5B1A368A269013BA360BC
:102D5000531CA36115782269934224BFE368A361E1
:102D6000E3690BB120469847002383F31188284676
:102D700070BD3146204600F0A3FA0028E2DA85F360
:102D8000118870BD2DE9F74F05460F4690469A46CB
:102D9000D0F81C90202686F311884FF0000B1446C3
:102DA00064B1224639462846FFF740FF034668B91A
:102DB0005146284600F084FA0028F1D0002383F31E
:102DC0001188A8EB040003B0BDE8F08FB9F1000F43
:102DD00003D001902846C847019B8BF31188E41A61
:102DE0001F4486F31188DBE7C361009BC1608161EA
:102DF000416111440060406082600161036270477C
:102E0000F8B504460E461746202383F31188A568BB
:102E1000A5B1A368013BA36063695A1C62611E707F
:102E2000236962699A4224BFE3686361E3690BB175
:102E300020469847002080F31188F8BD3946204687
:102E400000F03EFA0028E2DA85F31188F8BD0000B0
:102E50008369426910B59A4201D182687AB9826861
:102E6000013282605A1C82611C7803699A4201D344
:102E7000C3688361002100F033FA204610BD4FF093
:102E8000FF3010BD2DE9F74F05460F4690469A4694
:102E9000D0F81C90202686F311884FF0000B1446C2
:102EA00064B1224639462846FFF7EEFE034668B96C
:102EB0005146284600F004FA0028F1D0002383F39D
:102EC0001188A8EB040003B0BDE8F08FB9F1000F42
:102ED00003D001902846C847019B8BF31188E41A60
:102EE0001F4486F31188DBE70268436811430160E1
:102EF00003B11847704700001430FFF743BF0000CC
:102F00004FF0FF331430FFF73DBF00003830FFF7BC
:102F1000B9BF00004FF0FF333830FFF7B3BF0000F8
:102F20001430FFF709BF00004FF0FF311430FFF7F6
:102F300003BF00003830FFF763BF00004FF0FF32DF
:102F40003830FFF75DBF000000207047FFF7BCBDC1
:102F50000E4B37B50360002343608360C3600123D9
:102F6000044615460374202200900B4600F15C01D4
:102F70001430FFF7B7FE00942B46202204F17C01A9
:102F800004F13800FFF730FF03B030BDEC4000081B
:102F900038B5C36904460D461BB904210844FFF740
:102FA000A3FF294604F11400FFF7AAFE002806DA61
:102FB000201D4FF48061BDE83840FFF795BF38BD54
:102FC0000022024B1B605B609A607047DC2400208B
:102FD000002382680374054B1B6899689142FBD2F9
:102FE0005A6803604260106058607047DC2400201B
:102FF00008B5202383F31188037C032B05D0042B11
:103000000DD02BB983F3118808BD002243691A60E3
:103010004FF0FF334361FFF7DBFF0023F2E790E857
:103020000C001A6002685360F2E700000023826817
:103030000374054B1B6899689142FBD85A6803607A
:103040004260106058607047DC240020054B19690D
:1030500008741868026853601A60186101230374C9
:10306000FDF78EBADC24002030B54B1C87B0054636
:103070000A4C10D023690A4A01A800F059F92846E1
:10308000FFF7E4FF049B13B101A800F06BF923697B
:10309000586907B030BDFFF7D9FFF8E7DC240020FE
:1030A000F12F000838B50C4D41612B6981689A6891
:1030B0000446914203D8BDE83840FFF789BF18465F
:1030C000FFF786FF01232C61014623742046BDE8EB
:1030D0003840FDF755BA00BFDC240020044B1A68C5
:1030E0001B6990689B68984294BF0020012070473C
:1030F000DC24002010B5084C236820691A6854604D
:103100002260012223611A74FFF790FF01462069B3
:10311000BDE81040FDF734BADC24002008B5FFF705
:10312000DDFF18B1BDE80840FFF7E4BF08BD0000AF
:10313000FEE7000010B5174CFFF742FF00F0EAF879
:1031400080221549204600F06FF8012344F8180C3E
:103150000374124B124AD96821F4E0610904090C86
:103160000A431049DA60CA6842F08072CA600E49A8
:103170000A6842F001020A601022DA77202283F8FE
:103180002220002383F3118862B6BDE8104007486F
:1031900000F06CB8042500201441000800ED00E0A8
:1031A0000003FA05F0ED00E0001000E01C4100080B
:1031B000F8B50F4C226A01322262224652F8141FDF
:1031C0009142154606D020268B68013B8B606369CF
:1031D0009A6802B1F8BD1968DF68DA604D60616114
:1031E00082F311881869B84786F31188EFE700BFAA
:1031F000DC240020EFF3118020B9EFF305832022B7
:1032000082F311887047000010B558B9EFF30584B8
:10321000C4F3080414B180F3118810BDFFF77EFFDA
:1032200084F3118810BD0000826002220274002223
:10323000427470478368A3F13C0243F80C2C026986
:1032400043F83C2C426943F8382C074A43F81C2CBD
:10325000C268A3F1180043F8102C022203F8082CCE
:10326000002203F8072C70479105000810B52023B1
:1032700083F31188FFF7DEFF00210446FFF712FFFA
:10328000002383F31188204610BD0000024B1B6908
:1032900058610F20FFF7DABEDC240020202383F3DF
:1032A0001188FFF7F3BF000008B50146202383F320
:1032B00011880820FFF7D8FE002383F3118808BD8A
:1032C00049B1064B42681B6918605A60136043603D
:1032D0000420FFF7C9BE4FF0FF307047DC24002008
:1032E0000368984206D01A68026050605961184617
:1032F000FFF76EBE7047000038B504460D462068E3
:10330000844200D138BD036823605C604561FFF7EB
:103310005FFEF4E7054B03F114025A619A614FF026
:10332000FF32DA6100221A62704700BFDC240020FD
:1033300010B5C2600A4A036153699C68A1420CD867
:103340005C68036044602060586081609868411A3E
:1033500099604FF0FF33D36110BD091B1B68ECE788
:10336000DC240020036881689A680A449A604268F5
:10337000136003685A6000234FF0FF32C360014BB3
:10338000DA617047DC24002000207047FEE700006F
:10339000704700004FF0FF3070470000BFF34F8FC1
:1033A000024AD368DB07FCD4704700BF002002400C
:1033B00008B5074B1B7853B9FFF7F0FF054B1A69A7
:1033C000120641BF044A5A6002F188325A6008BDB1
:1033D000E0250020002002402301674508B5054B89
:1033E0001B7833B9FFF7DAFF034A136943F0800310
:1033F000136108BDE0250020002002407F289ABF0D
:1034000000F5003080020020704700004FF480601B
:1034100070470000802070477F2808B50BD8FFF761
:10342000EDFF00F580630268013204D1043083426D
:10343000F9D1012008BD002008BD00007F2838B563
:10344000044624D800F0B6F8124D2860FFF7A6FF16
:10345000FFF7AEFFF322104B2046DA6002221A611A
:10346000FFF7CCFF58611A6942F040021A61FFF77A
:1034700095FF4FF4806100F0E9F8FFF7AFFF00F02F
:1034800099F828602046BDE83840FFF7C5BF002006
:1034900038BD00BFE4250020002002402DE9F8439C
:1034A00012F00103144606D040F24B221F4B1A6063
:1034B0000020BDE8F88385181D4A954204D94FF4D1
:1034C00014711A4A1160F3E7FFF772FFFFF766FF06
:1034D0004FF00109DFF86880451A012C05EB010661
:1034E0000F4604D8FFF77AFF0120BDE8F883C8F83B
:1034F000109031F8023B3380FFF750FF0020C8F8EE
:10350000100033883A889BB29A420DD040F267226D
:10351000064B1A60074B1E60074B1C60074B1F6071
:10352000FFF75CFFBDE8F883023CD6E7DC2500200E
:10353000FFFF0108D0250020D8250020D425002039
:1035400000200240084908B50B7828B153B9FFF7AD
:103550002FFF01230B7008BD23B1BDE808400870A0
:10356000FFF73CBF08BD00BFE025002038B5FFF7DE
:1035700041FE4FF47A730C490C4A0C6A116803FB44
:1035800004F38B420A49D1E9004504D2003445F1E5
:103590000105C1E90045E41845F100051360FFF796
:1035A00033FE2046294638BDDC240020E8250020D3
:1035B000F025002008B5FFF7D9FF4FF47A720023F9
:1035C000FCF7E6FD08BD00BF10B5094C0439013A0F
:1035D000D2B2FF2A00D110BD53089800043054F82D
:1035E000233000599BB243EA004341F8043FEEE721
:1035F000046C004030B50748013AD2B2FF2A00D12E
:1036000030BD0D88540840F82450A3004C88043382
:103610001C50F1E7046C004007B5012201A900200D
:10362000FFF7D2FF019803B05DF804FB13B5044621
:10363000FFF7F2FFA04206D002A941F8044D012293
:103640000020FFF7D7FF02B010BD00007047000058
:1036500045F25552064B1A6002225A6040F6FF723C
:103660009A604CF6CC421A600122024B1A707047E5
:1036700000300040F9250020034B1B781BB14AF6AF
:10368000AA22024B1A607047F92500200030004042
:10369000034B1B689B0042BF0122024B1A7070470C
:1036A00024100240F82500204FF08072014B1A6070
:1036B000704700BF24100240014B1878704700BFCC
:1036C000F8250020EFF30983203383F309880023D2
:1036D00083F311887047000010B5202383F311880D
:1036E0000D4B5B6813F4006312D0EFF309844FF0C5
:1036F000807344F8043CA4F1200383F30988FFF7A6
:10370000EDFC18B1054B44F8083C10BD044BFAE73A
:1037100083F3118810BD00BF00ED00E0A105000893
:10372000A405000870470000FEE70000084A094BA6
:1037300009498B4204D30021084A934205D37047BC
:1037400052F8040F43F8040BF3E743F8041BF4E7C3
:10375000304200080026002000260020002600201D
:1037600000F030B808B500F063F9FFF7E3FCBDE8FE
:103770000840FFF78DBF0000704700004FF0FF3199
:103780000E4B1A6919611A6900221A611869D86802
:10379000D960D968DA60DA68DA6942F08052DA61B1
:1037A000DA69DA6942F00062DA61054ADB691368B6
:1037B00043F48073136000F01BB900BF0010024097
:1037C00000700040194B1A6842F001021A601A6832
:1037D0009007FCD51A6802F0F9021A6000225A60BC
:1037E0005A6812F00C0FFBD11A6842F480321A604A
:1037F0001A689103FCD55A6842F4E8125A601A68B4
:1038000042F080721A601A689201FCD51221084AAF
:103810005A60084A11605A6842F002025A605A68B7
:1038200002F00C02082AFAD1704700BF00100240D3
:1038300000641D0000200240084A08B55369116861
:103840000B4003F00103536123B1054A13680BB128
:1038500050689847BDE80840FFF73EBF00040140AC
:103860000C230020084A08B5536911680B4003F087
:103870000203536123B1054A93680BB1D06898479E
:10388000BDE80840FFF728BF000401400C230020DA
:10389000084A08B5536911680B4003F004035361EB
:1038A00023B1054A13690BB150699847BDE8084038
:1038B000FFF712BF000401400C230020084A08B59E
:1038C000536911680B4003F00803536123B1054AA3
:1038D00093690BB1D0699847BDE80840FFF7FCBE7B
:1038E000000401400C230020084A08B55369116800
:1038F0000B4003F01003536123B1054A136A0BB167
:10390000506A9847BDE80840FFF7E6BE0004014052
:103910000C230020174B10B55C691A68144004F49E
:1039200078725A61A30604D5134A936A0BB1D06A20
:103930009847600604D5104A136B0BB1506B98473B
:10394000210604D50C4A936B0BB1D06B9847E20566
:1039500004D5094A136C0BB1506C9847A30504D5E4
:10396000054A936C0BB1D06C9847BDE81040FFF747
:10397000B3BE00BF000401400C2300201A4B10B559
:103980005C691A68144004F47C425A61620504D5EB
:10399000164A136D0BB1506D9847230504D5134A91
:1039A000936D0BB1D06D9847E00404D50F4A136EA8
:1039B0000BB1506E9847A10404D50C4A936E0BB11D
:1039C000D06E9847620404D5084A136F0BB1506F4C
:1039D0009847230404D5054A936F0BB1D06F9847DD
:1039E000BDE81040FFF778BE000401400C23002022
:1039F000062108B50846FFF787F806210720FFF7DC
:103A000083F806210820FFF77FF806210920FFF739
:103A10007BF806210A20FFF777F806211720FFF729
:103A200073F8BDE8084006212820FFF76DB80000B4
:103A300008B5FFF7A3FE0648FEF754FFFFF782F82C
:103A4000FFF784FAFFF798FEBDE8084000F002B8DF
:103A50003C41000800F00EB808B5202383F311881C
:103A6000FFF7A6FB002383F31188BDE80840FFF7AA
:103A700033BE0000054B064A08215A6000229A60B6
:103A800007220B201A60FFF755B800BF10E000E0D6
:103A90003F1901001FB51C46094B05461B68D86835
:103AA00052B1084B8DE80A0002922B462246064985
:103AB000FDF7AAFC00F042F8044B1A46F2E700BFFB
:103AC0001011002078410008854100086C3C000876
:103AD00010B501390244904201D1002010BD10F808
:103AE000013B11F8014FA342F5D0181B10BD000097
:103AF0002DE9F8430746884691461E468BB10D4690
:103B0000A8EB0500B54207EB000402D20020BDE897
:103B1000F883324649462046FFF7DAFF18B1013DE7
:103B2000EEE7BDE8F8832046BDE8F883034611F8C8
:103B3000012B03F8012B002AF9D1704708B50620A4
:103B400000F02CF80120FFF721FC00001F2938B5F8
:103B500004460D4604D9162303604FF0FF3038BDEC
:103B6000426C12B152F821304BB9204600F030F8C7
:103B70002A4601462046BDE8384000F017B8012B20
:103B80000AD0591C03D116230360012038BD00243C
:103B9000284642F825409847002038BD024B014690
:103BA0001868FFF7D3BF00BF1011002038B50023FD
:103BB000064C0546084611462360FFF7EBFB431C05
:103BC00002D1236803B12B6038BD00BFFC25002063
:103BD000FFF7DABB40A2E4F1646891064E6F206102
:103BE0007070207369670A00426164206677206CF8
:103BF000656E6774682025750A0042616420626FF3
:103C00006172645F69642025752073686F756C64E8
:103C10002062652025750A00426164206677206471
:103C2000657363726970746F72206C656E67746817
:103C30002025750A00426164206170702043524360
:103C4000203078253038783A307825303878203070
:103C500078253038783A3078253038780A00476F40
:103C60006F64206669726D776172650A00000000FA
:103C700072656365697665645F756E697175655FA8
:103C800069645F6C656E203C2055415643414E5F30
:103C900050524F544F434F4C5F44594E414D49434E
:103CA0005F4E4F44455F49445F414C4C4F43415444
:103CB000494F4E5F554E495155455F49445F4D410F
:103CC000585F4C454E475448002E2E2F2E2E2F5411
:103CD0006F6F6C732F41505F426F6F746C6F6164D4
:103CE00065722F63616E2E63707000616C6C6F6320
:103CF000617465645F6E6F64655F6964203C3D203C
:103D0000313237006F72672E6172647570696C6F43
:103D1000742E61705F7065726970685F7472696734
:103D200067657200766F69642068616E646C655FB8
:103D3000616C6C6F636174696F6E5F726573706FD5
:103D40006E73652843616E617264496E7374616E4F
:103D500063652A2C2043616E6172645278547261EB
:103D60006E736665722A290063616E617264496EC2
:103D70006974000063616E6172645365744C6F63B3
:103D8000616C4E6F646549440000000063616E61C0
:103D9000726448616E646C6552784672616D65004C
:103DA00063616E6172644465636F64655363616CE3
:103DB0006172000063616E617264456E636F646579
:103DC0005363616C61720000696E6372656D656E4C
:103DD000745472616E73666572494400656E7175E4
:103DE00065756554784672616D65730070757368AA
:103DF00054785175657565007072657061726546BD
:103E00006F724E6578745472616E736665720000ED
:103E1000636F7079426974417272617900000000C9
:103E20006465736361747465725472616E73666500
:103E3000725061796C6F61640000000066726565A4
:103E4000426C6F636B0000006269745F6C656E6743
:103E50007468203E20300072656D61696E696E671E
:103E60005F62697473203E203000696E7075745F04
:103E70006269745F6F6666736574203E3D20626C94
:103E80006F636B5F6269745F6F666673657400620F
:103E90006C6F636B5F656E645F6269745F6F6666AB
:103EA000736574203E20626C6F636B5F6269745F40
:103EB0006F66667365740072656D61696E696E67C1
:103EC0005F6269745F6C656E677468203C3D207248
:103ED000656D61696E696E675F6269747300696EB2
:103EE0007075745F6269745F6F6666736574203C99
:103EF0003D207472616E736665722D3E7061796CDF
:103F00006F61645F6C656E202A2038006F75747075
:103F100075745F6269745F6F6666736574203C3D9B
:103F20002036340072656D61696E696E675F626923
:103F3000745F6C656E677468203D3D2030002872A8
:103F40006573756C74203E20302920262620287247
:103F50006573756C74203C3D20363429202626205C
:103F600028726573756C74203C3D206269745F6CC7
:103F7000656E67746829000064657374696E6174A6
:103F8000696F6E20213D202828766F6964202A29D8
:103F900030290076616C756520213D202828766FD8
:103FA0006964202A293029006F66667365745F771B
:103FB000697468696E5F626C6F636B203C202833A4
:103FC0003255202D205F5F6275696C74696E5F6F7A
:103FD00066667365746F66202843616E6172644221
:103FE0007566666572426C6F636B2C2064617461E8
:103FF000292900006F75745F696E7320213D2028A8
:1040000028766F6964202A29302900007372635F63
:104010006C656E203E203055000000002863616E04
:104020005F6964202620307831464646464646463B
:104030005529203D3D2063616E5F696400000000EA
:10404000616C6C6F6361746F722D3E73746174691F
:1040500073746963732E63757272656E745F7573C2
:104060006167655F626C6F636B73203E2030000098
:104070007472616E736665725F696420213D2028E9
:1040800028766F6964202A293029000073746174CE
:10409000652D3E6275666665725F626C6F636B73F9
:1040A000203D3D202828766F6964202A2930290088
:1040B0002E2E2F2E2E2F6D6F64756C65732F6C69ED
:1040C0006263616E6172642F63616E6172642E63FC
:1040D000006974656D2D3E6672616D652E64617454
:1040E000615F6C656E203E20300000000000000023
:1040F000152F0008012F00083D2F0008292F000868
:10410000352F0008212F00080D2F0008F92E000878
:10411000492F00086D61696E0000000034410008FD
:1041200020250020D02500200100000031310008AA
:104130000000000069646C65000000000C1E0000B7
:10414000447B4144B4574944010000004244444484
:10415000444444440000000044444444444444442F
:10416000000000004444444444444444000000002F
:1041700044444444444444442C2066756E6374694A
:104180006F6E3A2000617373657274696F6E2022DE
:10419000257322206661696C65643A2066696C65E6
:1041A00020222573222C206C696E652025642573DE
:1041B00025730A000CC0FF7F010000000000000012
:1041C0006400000000000000FE2A0100D20400008C
:1041D000141100200000000000000000000000009A
:1041E00000000000000000000000000000000000CF
:1041F00000000000000000000000000000000000BF
:1042000000000000000000000000000000000000AE
:10421000000000000000000000000000000000009E
:10422000000000000000000000000000000000008E
:04423000000000008A
:00000001FF
