:020000040800F2
:1000000000090020E1040008991400089D1400086C
:10001000F11400089D140008C5140008E30400084A
:10002000E3040008E3040008E30400085D37000867
:10003000E3040008E3040008E3040008013C0008AE
:10004000E3040008E3040008E3040008E3040008F4
:10005000E3040008E3040008E5390008113A000849
:100060003D3A0008693A0008953A0008E3040008A0
:10007000E3040008E3040008E3040008E3040008C4
:10008000E3040008E3040008E3040008092600086C
:1000900075260008C92600081D270008C13A000877
:1000A000E3040008E3040008E3040008E304000894
:1000B000E3040008E3040008E3040008E304000884
:1000C000E3040008E3040008E3040008E304000874
:1000D000E3040008D92A0008ED2A0008E304000818
:1000E000293B0008E3040008E3040008E3040008D7
:1000F000E3040008E3040008E3040008E304000844
:10010000E3040008E3040008E3040008E304000833
:10011000E3040008E3040008E3040008E304000823
:10012000E3040008E3040008E3040008E304000813
:10013000E3040008E3040008E3040008E304000803
:10014000E3040008E3040008E3040008E3040008F3
:10015000E3040008E3040008E3040008E3040008E3
:10016000E3040008E3040008E3040008E3040008D3
:10017000E3040008E3040008E3040008E3040008C3
:10018000E3040008E3040008E3040008E3040008B3
:10019000E3040008E3040008E3040008E3040008A3
:1001A000D0400B1CD1409C46203AD34018435242C9
:1001B00063469340184370479140031C90409C460F
:1001C000203A9340194352426346D3401943704743
:1001D00053B94AB9002908BF00281CBF4FF0FF31AE
:1001E0004FF0FF3000F07AB9ADF1080C6DE904CEA4
:1001F00000F006F8DDF804E0DDE9022304B0704702
:100200002DE9F0478C460D460446089E002B51D13F
:100210008A4217466DD9B2FA82FEBEF1000F0BD0AA
:10022000CEF1200C01FA0EF520FA0CFC02FA0EF7C2
:100230004CEA050C00FA0EF44FEA174A250CBCFBF9
:10024000FAF81FFA87F90AFB18CC45EA0C4508FBB7
:1002500009F3AB420AD9ED1908F1FF3280F023818E
:10026000AB4240F22081A8F102083D44ED1AA4B24D
:10027000B5FBFAF00AFB105544EA054400FB09F906
:10028000A14509D9E41900F1FF3380F00A81A145A5
:1002900040F2078102383C44A4EB090440EA0840DC
:1002A0000021002E61D024FA0EF400233460736024
:1002B000BDE8F0878B4207D9002E54D0002186E894
:1002C00021000846BDE8F087B3FA83F1002940F029
:1002D0008E80AB4202D3824200F2FA80841A65EB30
:1002E00003050120AC46002E3FD086E81010BDE883
:1002F000F08712B90127B7FBF2F7B7FA87FEBEF114
:10030000000F34D1EB1B3A0C1FFA87FC0121B3FB21
:10031000F2F8250C02FB183345EA03450CFB08F301
:10032000AB4207D9ED1908F1FF3002D2AB4200F21F
:10033000D1808046ED1AA3B2B5FBF2F002FB105556
:1003400043EA05440CFB00FCA44507D9E41900F17D
:10035000FF3302D2A44500F2B8801846A4EB0C0487
:1003600040EA08409DE731463046BDE8F087CEF1CF
:10037000200405FA0EF307FA0EF720FA04F83A0CF7
:1003800025FA04F448EA0308B4FBF2F14FEA1845F1
:1003900002FB11441FFA87FC45EA044501FB0CF3FC
:1003A000AB4200FA0EF409D9ED1901F1FF3080F0EB
:1003B0008A80AB4240F2878002393D44EB1A1FFA33
:1003C00088F5B3FBF2F002FB103345EA034500FB6E
:1003D0000CF3AB4207D9ED1900F1FF386FD2AB42F5
:1003E0006DD902383D44EB1A40EA01418FE7C1F173
:1003F000200722FA07F88B4005FA01F448EA0303C4
:1004000020FA07FE4FEA134CFD404EEA040EB5FBFE
:10041000FCF94FEA1E440CFB19551FFA83F844EA15
:10042000054509FB08F4AC4202FA01F200FA01FAB0
:1004300008D9ED1809F1FF3043D2AC4241D9A9F1F6
:1004400002091D442D1B1FFA8EFEB5FBFCF00CFBB0
:1004500010554EEA054400FB08F8A04507D9E418FA
:1004600000F1FF3529D2A04527D902381C4440EAC3
:100470000940A4EB0804A0FB02894C45C6464D4642
:1004800015D312D056B1BAEB0E0364EB050404FA8F
:1004900007F7CB401F43CC40376074600021BDE8B4
:1004A000F0871846F8E69046E0E6C245EAD2B8EB97
:1004B000020E69EB03050138E4E72846D7E740461A
:1004C00091E78146BEE7014678E702383C4445E7BC
:1004D000084608E7A8F102083D442BE7704700BF33
:1004E00002E000F000F8FEE772B6394880F30888B1
:1004F000384880F3098838484EF60851CEF200019A
:10050000086040F20000CCF200004EF63471CEF2EA
:1005100000010860BFF34F8FBFF36F8F40F2000000
:10052000C0F2F0004EF68851CEF200010860BFF331
:100530004F8FBFF36F8F4FF00000E1EE100A4EF6C1
:100540003C71CEF200010860062080F31488BFF3EE
:100550006F8F03F041F903F06DF94FF055301F49EB
:100560001B4A91423CBF41F8040BFAE71C49194A67
:1005700091423CBF41F8040BFAE71A491A4A1B4B57
:100580009A423EBF51F8040B42F8040BF8E70020F2
:100590001749184A91423CBF41F8040BFAE703F0AF
:1005A0001FF903F089F9144C144DAC4203DA54F8E6
:1005B000041B8847F9E700F03FF8114C114DAC429D
:1005C00003DA54F8041B8847F9E703F007B9000081
:1005D0000009002000110020000000080001002098
:1005E00000090020D04300080011002074110020F1
:1005F0007811002090260020A0010008A00100082A
:10060000A0010008A00100082DE9F04F2DED108A8F
:10061000C1F80CD0C3689D46BDEC108ABDE8F08FD0
:10062000002383F311882846A047002002F070FEC3
:1006300002F09AFD00DFFEE7384B6FF013022DE960
:10064000F0416FF0670100241A7003225A709C7009
:10065000DC701C715C719C71DC711C7259729A7235
:10066000DC7203F025F8074603F072F80546C8BBB4
:100670002B4B9F4238D001339F4238D0294B27F073
:10068000FF029A4237D1F8B200F052FAA84642F27D
:10069000107400F07BFC00F051FA064678B384BB7E
:1006A000464635B1204B9F4203D003F049F8002461
:1006B0002646002003F006F81C4B1B6913F040038C
:1006C00022D00EB100F034F800F082FC00F016FEEB
:1006D00000F022FF0546CCB900F0D0FC012002F06A
:1006E0001DFEF8E78046D4E780460446D1E704467D
:1006F0004FF00108CDE780464FF47A74C9E704460D
:10070000CFE74FF47A74CCE71C46DDE700F004FF36
:10071000401BA042E0D900F00BF8D9E77811002087
:10072000010007B0000008B0263A09B000040048F4
:1007300010B51C4B1C4953F8042F013200D110BDD9
:100740008B42F8D1194C1A4B22689A4228D9194B7E
:100750009B6803F1006303F5D0439A4220D202F074
:10076000C3FF02F0D5FF002000F0E2FD124B022093
:10077000187000F019FE114BDA690022DA61D969AC
:1007800099699A619B6972B60D4A0E4B13601B689A
:100790002268202181F311889D4683F30888104741
:1007A00010BD00BFFC6700081C6800080468000852
:1007B000FF6700087811002084110020001002401B
:1007C00008ED00E00068000809490B6849F269007B
:1007D0009AB21B0C00FB0233064A0B60136844F20A
:1007E000506198B21B0C01FB0030106080B2704762
:1007F0000C1100200811002010B500211022044621
:1008000000F0ECFD034B03CB206061601868A06032
:1008100010BD00BFACF7FF1FF0B51F4CBBB000F020
:100820007BFEA368C31AF92B30D906AD2346A0601E
:1008300028220021284601F0FDFB04F10E0000F003
:10084000C5FD0023C6B2591D5F1CDBB2B3424FEA9F
:10085000C10107DA0E3323440822284601F0EAFBDF
:100860003B46F0E7012303930823207B02930B4BC5
:100870000193C1F3CF013023059100930146049504
:1008800003A3D3E90023064801F0A4F93BB0F0BD6F
:1008900078F6339F93CACD8DC8210020D521002042
:1008A000A021002070B50D4614461E4601F038F90F
:1008B00050B9022E0ED1012C0CD112A3D3E9002382
:1008C000C5E90023012070BD052C14D003D8012CEC
:1008D00009D0002070BD282C09D0302CF9D10BA3F1
:1008E000D3E90023ECE70BA3D3E90023E8E70BA34C
:1008F000D3E90023E4E70BA3D3E90023E0E700BF3B
:10090000AFF30080401DA12026812A0B78F6339F8B
:1009100093CACD8D9E6AC421818A46EE26417272A9
:10092000DF25D7B7F017304A39059E5638B504464B
:100930000D46034620222846002101F07BFB227948
:100940002346032A28BF032203F8042F2846022245
:10095000202101F06FFB62792346072A28BF072276
:1009600003F8052F28460322222101F063FBA27918
:100970002346072A28BF072203F8062F284603220A
:10098000252101F057FB284604F1080310222821F5
:1009900001F050FB382038BD2DE9F04FADF5017D59
:1009A00021AE0EAD40F2791280460F46304600214E
:1009B00000F014FD48220021284600F00FFD00F051
:1009C000ABFD594B4FF47A72B0FBF2F0186093E82C
:1009D0000700012385E807002B740DF15A0000235E
:1009E0006B74FFF709FF032385F82030EC2385F8AB
:1009F000213007AB18464D4903F06CF91B222864DF
:100A00003146284685F83C20FFF790FF12AB04469C
:100A100001460822304601F00DFB0822A1180DF115
:100A20004903304601F006FB0DF14A03082204F1A8
:100A30001001304601F0FEFA13AB202204F1180138
:100A4000304601F0F7FA14AB402204F13801304689
:100A500001F0F0FA16AB082204F17801304601F0FB
:100A6000E9FA0DF15903082204F18001304601F042
:100A7000E1FA04F1880A0DF15A0904F5847B4B462A
:100A80005146082230460AF1080A01F0D3FAD3454C
:100A900009F10109F3D11BAB08225946304601F098
:100AA000C9FA04F588744FF0000995F834304B45C5
:100AB00010D84FF0000995F83C304B4515D92B6CF8
:100AC00021464B440822304601F0B4FA083409F1BB
:100AD0000109F0E7AB6B21464B440822304601F098
:100AE000A9FA083409F10109DFE7E31DC3F3CF03D5
:100AF000F97E0593002304960393BB7E0293193776
:100B000001230093019706A3D3E90023404601F097
:100B100061F80DF5017DBDE8F08F00BFAFF30080F7
:100B20009E6AC421818A46EE88110020AC3E0008EE
:100B3000014B1870704700BF94110020F0B5334B83
:100B40001C7B85B034B1324B0E221A810024204622
:100B500005B0F0BD2F4A1068516802AB03C30823EB
:100B60000DEB03022C492D4803F096F8054630B9E9
:100B7000274B2B480A221A8100F084FCE6E7016922
:100B8000B1F5663F06D9224B26480B221A8100F0A8
:100B900079FCDCE7438BB3F57B7F09D01C4A224804
:100BA0000C2111814FF47B72194600F06BFCCEE7EB
:100BB0001E4A024402F11003994204D2144B1C480D
:100BC00010221A81E3E710398E1A2046134900F0EB
:100BD000A7FC3246074605F11801204600F0A0FCAC
:100BE000AB689F4202D1EB6898420AD0084B0D22B5
:100BF0001A8100903B46EA68A9680E4800F042FC62
:100C0000A4E70D4800F03EFC0124A0E7C821002025
:100C1000881100207C3D0008DC9703000068000874
:100C2000843D0008903D0008A23D00080898FFF7A9
:100C3000C03D0008DD3D0008063E00082DE9F04FEC
:100C4000ADB006AF80460C4600F06AFF05460028AE
:100C50006AD1237E022B18D1E38A012B15D100F033
:100C60005BFC8146FFF7B0FD4FF4C873BD4EB0FB8F
:100C7000F3F209F5167902FB1300E37E19FA80F00E
:100C800030608BB9B84B00221A709C37BD46BDE866
:100C9000F08F3B1D1D440095002308224FEAC90137
:100CA000204601F02BF84D46A38A013BAB425FFA88
:100CB00085F90BD905F10109B9F1110FE9D1AB4B58
:100CC000AB4A40F23911AB4802F0B8FF07F114000B
:100CD000FFF792FD2A4607F11401381D02F0CCFF00
:100CE00003460028CED1B9F1100F07D09E4B83F8F0
:100CF00000903368A3F516733360C6E707F19802D6
:100D0000014602F8950D20460092072200F0F6FFFA
:100D1000F9787F2904DD984B954A4FF4A871D2E702
:100D2000404600F0E1FEB0E7E38A052B00F00681C3
:100D300006D8012BA9D121464046FFF72DFEA4E796
:100D4000282B3DD0302BA0D1637E8C4D01336A7BA4
:100D5000DBB29342E94640F0EF80E27E2B7B9A4281
:100D600040F0EA8007F19803002623F8846D1022F2
:100D7000009331460123204600F0C0FFB4F81480F0
:100D8000A8F102081FFA88F808F1030323F003030F
:100D90000A3323F00703ADEB030D0DF1180A3346B8
:100DA0009BB2B11C98454FEAC10106F101066CDD0A
:100DB0005344009308220023204600F09FFFEEE7F3
:100DC000A38A013B9BB2C92B3FF65FAF6B4E357BCD
:100DD0004DBB06F10C03009308222B462946204602
:100DE00000F08CFFA38A05F10109013BEDB29D42A1
:100DF0004FEAC90109DA0E3535440095002308226F
:100E0000204600F07BFF4D46ECE700230022C6E9B8
:100E100000230023B36086F8D730C6F8D830337B80
:100E20000BB9E37E3373002507F114063B1D08223E
:100E3000294630467D60BD60FD6001F0FBF83B7ADD
:100E400005F10109AB424FEAC90107D9FB68082245
:100E50002B44304601F0EEF84D46F0E7C1F3CF01E8
:100E60000023E07E059104960393A37E0293193438
:100E7000282301460093019438A3D3E90023404678
:100E800000F0A8FEFFF7C8FCFFE695F8D70000F0D9
:100E900059FAD5F8D83006461BB995F8D70000F0B6
:100EA00061FAD5F8D83043449E4204D295F8D70071
:100EB000013000F057FA4FEA980B0024A0B25845D1
:100EC00004F1010408DA2B6880000AEB000101221A
:100ED000184400F08BFAF1E7D5E90023D5F8D840A3
:100EE00095F8D70012EB080243F100034444C5E92A
:100EF0000023C5F8D84000F025FA844209D395F8BC
:100F0000D730013385F8D730D5F8D8309E1BC5F8D7
:100F1000D860B8F1FF0F08DC00232B7300F034FA1F
:100F2000FFF70CFE08B1FFF703FC2B68144A9B0A7D
:100F3000013313810023AB60CD46A6E6BFF34F8F8C
:100F40001049114BCA6802F4E0621343CB60BFF34F
:100F50004F8F00BFFDE700BFAFF3008026417272E4
:100F6000DF25D7B79C21002099210020183E0008DA
:100F7000C83E0008713E0008933E0008C8210020CA
:100F80008811002000ED00E00400FA0508B54FF0DC
:100F900000530B4A196891420AD10A4A597D1170CF
:100FA00009481B7D0373C92208490E3000F004FA7A
:100FB000E02200214FF00050BDE8084000F00EBADA
:100FC0009AAD44C594110020C821002016000020CD
:100FD00030B5204C2049214885B002236371042399
:100FE0000025ADF808300123ADF80C5007228DF82C
:100FF0000C308DF80B301A4B4B608DF80A2001F045
:1010000003FE184B019500931749184B18484FF4ED
:10101000805200F033FD174B1978254611B1144862
:1010200000F062FD00F078FA0446FFF7CDFB4FF4C4
:10103000C87304F51674B0FBF3F202FB13000E4BF9
:1010400014FA80F0186002F083FB08B10F232B81A3
:1010500005B030BD8811002000110020E0220020E2
:1010600003000600A5080008981100203D0C0008A8
:10107000A0210020941100209C2100202DE9F04F98
:1010800094A7D7E900670FF25429D9E900898D4C5C
:1010900093B0DFF850B2DFF850A2204600F0E6FD32
:1010A0000CAD079098B310220021284600F096F965
:1010B000079B197B4FF0000261F3030219468DF87C
:1010C000302051F8040F49680EAA03C21B680D9A1C
:1010D00063F31C029DF830300D9243F020038DF82D
:1010E000303000232A461946584601F09DFD0790EE
:1010F00030B9204600F0BEFD079B8AF80030CCE7EF
:101100009AF80030072B3EDC01338AF800301822B1
:101110000021284600F062F9DFF8C8A10023194633
:101120002A46504601F0A8FD014680BB102208A8BF
:1011300000F054F94FF09042536983F0100353616B
:1011400000F0ECF90B4612A9024611E903000DF17B
:10115000240E8EE803009DF83410C1F303008906C5
:101160004CBF0E99BDF838108DF82C0046BFC1F366
:101170001C0141F00041C1F30A010891204608A971
:1011800000F0BEFFCAE7204600F074FDBFE720462E
:1011900000F0C6FC824600284AD1DFF850B100F0CA
:1011A000BBF9DBF80030984242D300F0B5F9079064
:1011B000FFF70AFB079A8DF820A04FF4C87302F5D9
:1011C0001672B0FBF3F101FB130012FA80F0CBF8BA
:1011D0000000DFF81CB19BF8001011B901238DF855
:1011E000203028460791FFF707FB0799C1F1100A45
:1011F0005FFA8AFABAF1060F28BF4FF0060A524684
:1012000029440DF1210000F0D7F80AF101030493FD
:1012100008AB0393182302932B4B019301230093F4
:1012200032463B46204600F07DFC00238BF8003020
:1012300000F072F9254ADFF8BCA01368C31AB3F5B1
:101240007A7F32D3106000F069F902460B462046DF
:1012500000F016FD204600F063FC30B39AF80C3025
:10126000DFF894B0002B14BF032302238BF8053062
:1012700000F052F94FF47A732946B0FBF3F0CBF843
:1012800000005846FFF752FB182307300293104B1B
:101290000193C0F3CF0040F25513049000930395DF
:1012A00042464B46204600F03DFC9AF80C300BB10C
:1012B000FFF7B2FA9AF80C30002B7FF4EAAE13B0C5
:1012C000BDE8F08FA021002098210020A822002056
:1012D000AC220020401DA12026812A0BF1C6A7C107
:1012E000D068080FE0220020AD2200209C210020C1
:1012F00099210020C82100208811002070B502F03B
:10130000C3F8094C094E20700025306823788342C9
:1013100008D902F0B5F8336805440133B5F5D04F6C
:101320003360F2D370BD00BFDC220020B022002069
:1013300002F042B900F10060920000F5D04002F0E6
:10134000E7B80000054B1A68054B1B789B1A8342CF
:1013500002D9104402F094B800207047B022002057
:10136000DC22002038B5074D04462868204402F0EE
:101370008DF828B928682044BDE8384002F098B8B4
:1013800038BD00BFB0220020064991F8243033B1A7
:1013900000230822086A81F82430FFF7CBBF012020
:1013A000704700BFB4220020022802BF4FF09043D4
:1013B0004FF480129A61704710B50023934203D016
:1013C000CC5CC4540133F9E710BD0000024603466B
:1013D000981A13F9011B0029FAD1704702440346F9
:1013E000934202D003F8011BFAE770472DE9F0475A
:1013F000234C94F8243005468846174683BB2E4676
:10140000DFF87C90C7B394F824302BB92022FF2159
:1014100048462662FFF7E2FF94F82400C0F1080571
:10142000BD4228BF3D465FFA85FAAD0041462A46D7
:1014300004EB8000FFF7C0FF94F82430A7EB0A0705
:101440009A445FFA8AFABAF1080F2E44A844FFB210
:1014500084F824A0D6D1FFF797FF0028D2D108E066
:10146000266A06EB8306B042CAD0FFF78DFF00283C
:10147000C5D10020BDE8F0870120BDE8F08700BF9E
:10148000B42200200FB4002004B070470FB44FF016
:10149000FF3004B070470000FEE7000000B59BB0CD
:1014A000EFF3098168226846FFF786FFEFF30583B3
:1014B000034B9A6B9A6A9A6A9A6A9A6A9B6AFEE7DF
:1014C00000ED00E000B59BB0EFF3098168226846AB
:1014D000FFF772FFEFF30583044B9A6B9A6A9A6ADF
:1014E0009A6A9A6A9A6A9B6AFEE700BF00ED00E07A
:1014F00000B59BB0EFF3098168226846FFF75CFFF7
:10150000EFF30583034B5A6B9A6A9A6A9A6A9A6A4E
:101510009B6AFEE700ED00E002F086B802F060B8DA
:1015200030B5084D0A4491420BD011F8013B092413
:101530005840013CF7D040F300032B4083EA5000B1
:10154000F7E730BD2083B8ED0246006848B1036874
:101550001360D388118901339BB29942D38038BF7D
:101560001381704770B588B00D46044620220021D3
:101570006846FFF733FF20460495FFF7E5FF054671
:1015800058B16B46044608AE1A4603CAB242206000
:101590006160134604F10804F6D1284608B070BD16
:1015A0002DE9F04130B9274B274A40F2C531274891
:1015B00002F044FB0B7C23B9254B234A40F2C63191
:1015C000F5E7C66986B9C161BDE8F081002B29DA6B
:1015D000930CAB4229D1B44201D10C60F3E7C8F8B7
:1015E00000100C60BDE8F0814B6823F06047BD0C33
:1015F0004FEAD37EC3F3807C15EA230538BF3D460E
:10160000B04634466368BEEBD37F23F06042DDD141
:10161000974203D1C3F380739C450AD1974205E0FA
:101620001C46EFE7AA4206D013469D422CBF00237A
:101630000123002BCFD12368A046002BF0D12160DD
:10164000BDE8F0819C410008903F0008544200082A
:101650007542000808B5034A034B044840F25E3166
:1016600002F0ECFA6C3F00081442000854420008F3
:1016700008B503680B60C388016033B9044B054AA1
:1016800005484FF4C76102F0D9FA013BC38008BD99
:10169000E4410008E03F00085442000870B50C46E1
:1016A00000F10C05616831B9E38A61F30903E38253
:1016B0000020002170BD0E682846FFF7D9FF666044
:1016C000F0E7000008B5426832B10B4B0B4A0C48FA
:1016D00040F22F4102F0B2FAC37DC3F3840101311D
:1016E00061F38603C375C38A62F30903C3821B0ACD
:1016F00062F3C713C37508BD304200089C3F000861
:10170000544200082DE9F047089E32B91F4B204A89
:10171000204840F2395102F091FA01F007054FEAF2
:10172000D6082A4406F0070600EBD1004FF47F49A3
:10173000954201D1BDE8F08705F0070E06F0070AD3
:10174000D645774638BF5746C7F10807511BEC0806
:101750008F4228BF0F46045D08EBD60104FA0EF451
:1017600013F801C029FA07FE24FA0AF45FFA8EFE84
:101770008CEA04044EFA0AFE04EA0E048CEA040C15
:1017800003F801C03D443E44D2E700BFB041000829
:10179000B43F0008544200082DE9F04106460F46C8
:1017A00000254FF6FF7441F221082A46304639469B
:1017B000FEF7F6FCC0B284EA0024082314F4004FBC
:1017C0004FEA4404A4B203F1FF3318BF84EA0804CB
:1017D00013F0FF03F2D10835402DE6D12046BDE8D5
:1017E000F081000010B50A4441F22104914200D179
:1017F00010BD11F8013B80EA0320082310F4004FCC
:101800004FEA400080B203F1FF3318BF604013F08D
:10181000FF03F3D1EAE700002DE9F04F85B08A46D7
:101820008DE80C00BDF83C40814630B9494B4A4A2E
:1018300040F26E31494802F001FA11F0604F04D0D5
:10184000474B454A40F26F31F4E7009B002B7ED0B6
:1018500024B10E9B002B7AD0072C28D809F10C005C
:10186000FFF772FE054628B96FF00205284605B05D
:10187000BDE8F08F14220021FFF7B0FD22460E993B
:1018800005F10800FFF798FD631C2B74009B1B7883
:101890002C4403F01F0363F03F0323724AF000431C
:1018A0006B6029464846FFF77BFE0125DEE7019B7A
:1018B0001B0A4FF00008029300F10C034FF0800B5D
:1018C0004646454603930398FFF73EFE0746002829
:1018D000CAD014220021FFF781FDB6BB9DF8043069
:1018E0003B729DF808307B7202220E9B711E1944D8
:1018F000B4420AD9B8180132D2B211F801EF80F817
:1019000008E00136072AB6B2F2D1009B197801F03F
:101910001F01B44208BF4FF0400BB81841EA48110C
:101920004BEA0103037201324AF000437B603A74D0
:1019300039464846FFF734FE0135B4422DB288F0EF
:1019400001084FF0000BBED190E70022CDE76FF009
:1019500001058BE79C410008803F000854420008C5
:10196000C04100082DE9F0471E46CB8A9146C3F3DB
:101970000902062A80460F4619D013460021B0B24C
:101980008DB25A1992B2052A09D9A84210D8FA8AFA
:10199000034463F30902FA820120BDE8F087A842FC
:1019A000F3D93A4419F8014094760131E8E700256B
:1019B000FB8A7C68C3F30900821F1C23B2FBF3FA85
:1019C00003FB1A2A1FFA8AF27CB301212368002B39
:1019D00039D1B31F03441C20B3FBF0F301339BB296
:1019E00099420CD2BAF1000F09D14046FFF7ACFD85
:1019F00008B1C0F800A0206008B304460022B6B2C7
:101A00004FF0000AB54230D2691E49441346E0182F
:101A100001339BB211F801EF80F804E001351C2B73
:101A2000ADB214D0AE42F2D8ECE74046FFF78CFDE1
:101A3000044608B1002303607C60002CDED16FF007
:101A40000200BDE8F087013189B21C46BEE7AE4214
:101A5000D8D94046FFF778FD08B1C0F800A0206053
:101A60000028ECD004460022CCE7FB8AC3F309022D
:101A7000164466F30903FB828EE70000F8B50E46B4
:101A800015461F46044628B9144B154A15484F21E0
:101A900002F0D4F824220021FFF7A0FC069B63602B
:101AA000079B23626A094FF6FF739A424FF00000CA
:101AB00028BF1A46A7602070A061E06197B204F1C8
:101AC0000C05824205D100232B6027826382A3820A
:101AD000F8BD2E60013035462036F2E79841000807
:101AE0000C3F00085442000808B528B9084B094AC1
:101AF0007321094802F0A2F8037823B94BB2002BF6
:101B000001DD017008BD054B024A7D21F1E700BFF0
:101B10009C410008183F000854420008E0400008BB
:101B2000007870472DE9F7430D9EBDF828900B9D76
:101B30009DF83040BDF8388007461946104616B962
:101B4000B8F1000F43D11F2C41D83B78D3B9B8F17D
:101B5000070F39D839F0030339D1424631464FF6E1
:101B6000FF70FFF73FFE4FEA092920F0010009F45A
:101B70004079400449EA0464400C44EA40244FF6AA
:101B8000FF730DE043EA0923B8F1070F43EA046449
:101B9000F5D9FFF701FE42463146FFF723FE034623
:101BA0008DE840012A4621463846FFF735FE0DB93B
:101BB000FFF750FD2B780133DBB21F2B88BF0023CA
:101BC0002B7003B0BDE8F0836FF00300F9E76FF00E
:101BD0000100F6E72DE9F7430E9F0B9D9DF8348039
:101BE000BDF83C6081469DF8300007B9C6BB1F2890
:101BF00036D899F800E0BEF1000F34D00C0244F062
:101C000080049DF8281044EAC83444EA014444EAB8
:101C10000E04072E44EA006415D919461046FFF752
:101C2000BBFD32463946FFF7DDFD034601960097BE
:101C30002A4621464846FFF7EFFDB8F1010F0CD1C7
:101C400025B9FFF707FD4FF6FF73EFE72B78013358
:101C5000DBB21F2B88BF00232B7003B0BDE8F083DD
:101C60006FF00100F9E76FF00300F6E7C06900B11B
:101C700004307047C1690B68C3610C30FFF7F8BCD2
:101C80002DE9F84FD0F818A0DFF86C80054616460D
:101C90001F4654464FF0000900F10C0B0CB9BDE88B
:101CA000F88FD4E90223B21A67EB0303994508BF02
:101CB00090451FD2AB699C42214628460DD1FFF7C3
:101CC000EDFCAB691B68AB6121465846FFF7D0FCC1
:101CD000AC692346A2461C46E0E7FFF7DFFC236819
:101CE000CAF8003021465846FFF7C2FC5446DAF8DD
:101CF0000030EFE72368EDE780841E002DE9F04F08
:101D00008BB00D4614460793DDF8509082460028AC
:101D100000F06481B9F1000F00F06081531E3F2B89
:101D200000F25C81012A03D1079B002B40F0568111
:101D3000BAF81460F6000023B5420893099380F0C6
:101D400053812B199E420AD2761B16F0FF0607D14B
:101D5000AB4BAC4A40F26751AB4801F06FFF2646EF
:101D6000DAF80C3023B9DAF81030002B00F0A58037
:101D70002F2D31D8C5F1300846454FF000032CBF58
:101D80005FFA88F8B0460093294608AB4246DAF875
:101D90000800FFF7B7FCA6EB08074544FFB2BAF806
:101DA000143003F10053063BDB000293DAF80C30E9
:101DB00005934FF0300B059B002B51D087B9DAF813
:101DC0001000002861D0002F5FD0AB4550D98F4B59
:101DD0008C4A40F2A651BFE737464FF00008DEE7D5
:101DE000029B23B98A4B874A4FF4B161B4E7029B47
:101DF000E02B28BFE02306935B44AB4204931DD93C
:101E00005B1B9F4226BFDBB203930397AB4504D90C
:101E10007E4B7C4A40F291519EE70598CDF80080B8
:101E200008ABA5EB0B01039A0430FFF76BFC039B97
:101E30009844FF1A1D445FFA88F8FFB2049B9B4543
:101E400004D3744B6F4A40F29B5185E7029B069A7C
:101E5000DDF810B09B1A0293059B1B680593AAE757
:101E6000029BBB42ABD26C4B664A40F2A15173E776
:101E7000CDF800803A46A5EB0B0108ABFFF742FC1A
:101E8000B8443D445FFA88F80027BAF81430B5EB3F
:101E9000C30F04D9614B5B4A40F2B1515CE7B8F122
:101EA000400F04D95E4B574A40F2B25154E767B134
:101EB0005C4B544A40F2B3514EE70093324608ABB4
:101EC0002946DAF80800FFF71DFC731E3F2B35B2D8
:101ED00001D8A64204DD544B544A40F235213BE779
:101EE00060070AD00AAB03EBD401624211F8083C48
:101EF00002F00702134101F8083C082C21D9102CEC
:101F000021D9202C8CBF08230423079A002A6DD0E6
:101F1000B4EBC30F6CD0082C04F1FF3215D89DF838
:101F2000203023FA02F2D10706D54FF0FF3202FA31
:101F300004F423438DF820309DF8203089F80030D8
:101F40004EE00123E1E70223DFE7102C11D8BDF8B2
:101F5000203023FA02F2D20706D54FF0FF3202FA00
:101F600004F42343ADF82030BDF82030A9F8003048
:101F700036E0202C0ED8089921FA02F2D30705D5B5
:101F80004FF0FF3303FA04F40C430894089BC9F89C
:101F9000003025E0402C1CD0DDE90867304639468A
:101FA000FEF7FEF8002100F0010050EA01030BD01B
:101FB000224601200021FEF7FFF8404261EB41017B
:101FC00006430F43CDE90867DDE90823C9E900238B
:101FD00006E0174B154A4FF42071BDE66FF001057E
:101FE00028460BB0BDE8F08F1D46F9E7012CA3D0C1
:101FF000082CA1D9102CB7D9202CE5D8C6E700BFF2
:10200000EC3F0008C43F0008544200080E4000089E
:10201000FB3F0008334000085B4000088240000896
:10202000B0400008C8400008E2400008443F0008F3
:10203000E040000830B585B030B9244B244A40F266
:10204000B121244801F0FAFD23B9234B204A40F284
:10205000B221F6E7402A04D9204B1D4A40F2B621AE
:10206000EFE722B91D4B1A4A4FF42F71E9E700241C
:10207000012A0294039417D11B788DF80830530776
:102080000AD004AB03EBD203554213F8084C05F019
:102090000705AC4003F8084C00910346002102A854
:1020A000FFF730FB05B030BD082AE5D9102A03D868
:1020B0001B88ADF80830E2E7202A02D81B6802939B
:1020C000DDE7D3E90045CDE90245D8E71C4100082A
:1020D000583F00085442000837410008E04000081B
:1020E00070B50C4600F10C05E16819B9A1602161D9
:1020F000A18270BD0E682846FFF7BAFAE660F3E7E2
:102100002DE9F04FD1F8009091B0C9F3C016044604
:102110000D46CDE90223002E50D0C9F3C03BC9F3D0
:102120000626B9F1000F80F29F8119F0C04F40F0F0
:102130009B812B7B002B00F09781BBF1020F03D01A
:102140002278B24240F0938109F07F02BBF1020F86
:10215000059236D119F07F0FC9F30F2A01D10AF089
:10216000030A2B447606059A93F8038046EA0B4649
:1021700046EA82465FEAD81346EA0A06069300F06A
:102180009A800022002310A961E90823059B00938F
:1021900067685B4652462046B847002800F08880B2
:1021A000A7698FB9314604F10C00FFF7DBF9074648
:1021B000D0B96FF0020011B0BDE8F08F4FF0020B04
:1021C000AFE7C9F3074ACCE73B699E420DD03F68B1
:1021D000002FF9D1314604F10C00FFF7C3F907468F
:1021E0000028E6D0A3693B60A761DDE90801FFF79D
:1021F000D3FAB882F97D08F01F06C1F38401711A81
:1022000089B20FFA81FED7E90223BEF1000FB8BFF1
:1022100001F1200EC9F30461B8BF0FFA8EFE0791D9
:1022200052EA030100F02F81DDE90201801A61EB1F
:10223000030102460B469F480021994208BF904285
:10224000C0F02181069B002B3FD0BEF1010F00F3AF
:102250001A8118F0400F38D0DDE90223C7E90223C4
:10226000202200210DEB0200FFF7B8F8DDE9022380
:10227000CDE908232B1D0A932B7BADF836A0013B3B
:10228000DBB2ADF834309DF81C308DF83A309DF853
:1022900014308DF83B3020468DF838B08DF8396019
:1022A000A36808A998473846FFF70CFA002082E790
:1022B0006FF00B007FE7A76917B96FF00C007AE7A2
:1022C0003B699E4296D03F68F6E7FB7DC8F340121B
:1022D000B2EBD31F40F0CE80C3F38403B34240F08F
:1022E000CC8006992B7B4FEA981279B3D2073CD465
:1022F000032B40F2C580DDE90223C7E902232B7BD3
:10230000AE1D033BDBB23246394604F10C00FFF749
:1023100029FB002808DA39462046FFF7BFF938467E
:10232000FFF7D0F9032046E7AB883B832A7B033ACB
:10233000D2B2B88A3146FFF755FAFB7DB882DA434C
:10234000C2F3C01262F3C713FB75AFE76AB92E1D63
:10235000013BDBB23246394604F10C00FFF702FBC9
:102360000028D8DB2A7B013AE2E7FA8AC2F30902A5
:10237000013B052AD9B250D8281D002399420AD919
:1023800007EB020E013210F801CB8EF81AC00133B0
:10239000062ADBB2F2D1DDE902898B4207F11A028B
:1023A000CDE908890A9238BF04337A680B9234BFAA
:1023B0005B1900230C93FB8AADF836A0C3F3090325
:1023C00019449DF81C308DF83A309DF814308DF882
:1023D0003B300023ADF834108DF838B08DF83960FB
:1023E0007B602A7BB88A013A291DFFF7FBF93B8BFA
:1023F000B882834203D1A36808A92046984708A958
:102400002046FFF76DFE3846FFF75CF9B88A3B8B34
:10241000984214BF11200020CDE6786810B34FF029
:10242000060E03689BB9A2EB0E021B2A13D80332D7
:10243000024405F1040E1F309942ACD91EF801CBBD
:1024400002F801CF01339042DBB2F5D1A3E70EF1E0
:102450001C0E1846E5E7184B184A194840F2B3110C
:1024600001F0ECFB034696E76FF00900A3E66FF07E
:102470000A00A0E66FF00D009DE66FF00E009AE6F0
:102480006FF00F0097E6FB7D68F386036FF3C713C9
:10249000FB7539462046FFF701F9069B002B7FF4B8
:1024A000D8AEFB7DC3F38402013262F38603FB7571
:1024B00003E700BF80841E004C410008303F000845
:1024C000544200082DE9F0414C4EB04240F081806A
:1024D0004B4CDFF830E1E56945F00075E561E469F2
:1024E000846AD4F8007207EA0E0747F00107C4F8BF
:1024F0000072D4F8005205EA0E0545F0010545EAE0
:102500000121C4F80012002A65D00021C4F81C1271
:102510000F46C4F80412C4F80C12C4F8141204EBE9
:10252000C10501310E29C5F84072C5F84472F6D1D3
:102530004FF0000E4FF0010C964510D1826AD2F890
:102540000032B04223F00103C2F8003253D12C4BC9
:10255000DA6922F00072DA61DB69BDE8F0819F7808
:102560001D8817F0010F18BFD4F804820CFA05F18A
:102570001CBF41EA0808C4F8048217F0020F1EBF0E
:10258000D4F80C8241EA0808C4F80C827F0742BFE5
:10259000D4F814720F43C4F8147204EBC5055F68D5
:1025A000C5F840729F68C5F84472D4F81C5229439C
:1025B000C4F81C120C330EF1010EBDE7846A002131
:1025C000C4F81C12C4F80412C4F80C12C4F8141293
:1025D000AEE7002AF2D1836A0022C3F84022C3F892
:1025E0004422C3F80422C3F814220122C3F80C22A7
:1025F000C3F81C22A2E7BDE8F08100BFE022002062
:10260000001002400000FFFF184A916A08B58B686D
:102610008B6013F0010105D013F00C0F14BF4FF4C1
:1026200080310121D80506D513F4406F14BF41F461
:10263000003141F00201D80306D513F4402F14BF36
:1026400041F4802141F00401D3690BB10748984758
:10265000202383F311880021054800F087FE002322
:1026600083F31188BDE8084001F088B8E02200201B
:10267000E822002038B5124CA36ADD68AA0712D000
:102680005A6922F002025A61A36913B1012120465E
:102690009847202383F3118800210A4800F066FE42
:1026A000002383F31188EB0606D5A36A1021D960B5
:1026B000236A0BB102489847BDE8384001F05EB884
:1026C000E0220020F022002038B5124CA36A1D69D8
:1026D000AA0712D05A6922F010025A61A36913B1F5
:1026E000022120469847202383F3118800210A48BD
:1026F00000F03CFE002383F31188EB0606D5A36AA5
:1027000010211961236A0BB102489847BDE838408F
:1027100001F034B8E0220020F022002038B50F4C40
:10272000A36A5D685D602A070AD5032222701A68D1
:1027300022F002021A60636A13B100212046984712
:102740006B0706D5A36A9969236A13B10904034884
:102750009847BDE8384001F011B800BFE0220020E2
:1027600010B50F4C204600F03DFA0E4BA3620B2132
:10277000132000F017FA0B21142000F013FA0B219C
:10278000152000F00FFA0B21162000F00BFA0023A1
:1027900020461A460E21BDE81040FFF793BE00BF49
:1027A000E0220020006400400F4B984210B5044620
:1027B00005D10E4BDA6942F00072DA61DB69A36A77
:1027C00001221A60A36A5A68D20707D56268516865
:1027D0001268D9611A60064A5A6110BD01210820A9
:1027E00000F07CFCEEE700BFE02200200010024079
:1027F0005B87010003291AD8DFE801F0020A0F14F1
:10280000836A9B6813F0E05F14BF012000207047CB
:10281000836A9868C0F380607047836A9868C0F3E1
:10282000C0607047836A9868C0F3007070470020EA
:102830007047000010B503291FD8DFE801F0021F20
:102840002327816A8B68C3F30163183301EB0313F9
:10285000107881061ED55468C0F30011490041EA82
:10286000C40141F0040100F00F00586090689860C6
:10287000D268DA6041F00101196010BD836A03F586
:10288000C073E5E7836A03F5C873E1E7836A03F57C
:10289000D073DDE79488C0F30011490041EA445148
:1028A000E1E7000001290CD003D3022910D0002059
:1028B0007047836ADA68920701D1186903E0012042
:1028C0007047836AD86810F0030018BF0120704772
:1028D000836AF2E710B539B9836AD96889071BD1D1
:1028E0001B699B0704D110BD012915D0022948D1CD
:1028F000816AD1F8C031D1F8C401D1F8C84114615E
:10290000D1F8CC41546120240C610C69A40717D183
:102910004C6944F0100412E0816AD1F8B031D1F86A
:10292000B401D1F8B8411461D1F8BC4154612024FC
:10293000CC60CC68A40703D14C6944F002044C611C
:1029400011795C0864F304119C0864F3451111715A
:1029500089064BBF91681189DB085B0D4CBF63F39F
:102960001C0163F30A01137948BF916060F303030C
:1029700013714FEA10234FEA104058BF11811370B2
:10298000508010BD002304491A465A50C818083315
:10299000802B4260F9D170470C2300200268436805
:1029A0001143016003B1184770470000024A1368E1
:1029B00043F0C0031360704700380140024A1368B7
:1029C00043F0C00313607047004400402DE9F04716
:1029D000C66D3768F46934620546200719D014F0D3
:1029E000080F0CBF00218021E20748BF41F0200101
:1029F000A30748BF41F04001600748BF41F4807120
:102A0000202383F31188281DFFF7C8FF002383F3D9
:102A10001188E2050AD5202383F311884FF4007151
:102A2000281DFFF7BBFF002383F311884FF0200917
:102A30004FF0000A14F0200831D13B0616D54FF0B4
:102A4000200905F1380A200610D589F3118850466F
:102A500000F04CFA00282FDA0821281DFFF79EFF0E
:102A600027F080033360002383F3118879060DD5A6
:102A700062060BD5202383F31188EA6C2B6D9A42F2
:102A800001D12B6CF3B9002383F31188E30621D520
:102A9000AA6E1369F3B15069BDE8F047184789F38E
:102AA0001188B38C95F864102846194000F0AAFAF2
:102AB0008AF31188F469BDE780B2308588F3118804
:102AC000F469C0E71021281D27F04007FFF766FFD3
:102AD0003760D8E7BDE8F08708B50348FFF776FF11
:102AE000BDE8084000F04ABE8C23002008B503482A
:102AF000FFF76CFFBDE8084000F040BEF82300205F
:102B000037B51D4C1D4D204600F070FA009404F1BD
:102B10001400002320221A4900F032F920220094E8
:102B200004F13800174B184900F0ACF9174BE36576
:102B30002566174C0C21252000F034F8204600F0C3
:102B400055FA04F11400009400232022114900F0EA
:102B500017F904F1380000940F4B1049202200F0BF
:102B600091F90F4BE3650C212620256603B0BDE8E3
:102B7000304000F017B800BF8C2300200051250220
:102B800064240020AD290008A4240020003801405E
:102B9000F823002084240020BD290008C42400203C
:102BA0000044004000F1604300F01F02400903F5BB
:102BB000614309018000C9B200F1604083F800134D
:102BC00000F5614001239340C0F8803103607047F5
:102BD00000F16040090100F56D40C9B2017670470F
:102BE000FFF7BEBD00F108020123037082600023DD
:102BF000C26000F110024360026142618361C361FF
:102C0000036243627047000010B52023044683F33B
:102C10001188022303704160FFF7C6FD0323237070
:102C2000002383F3118810BD2DE9F0411F460446AF
:102C30000D461646202383F3118800F108082378F7
:102C4000042B0ED029462046FFF7D4FD48B120467C
:102C500032462946FFF7EEFD002080F31188BDE8DB
:102C6000F0813946404600F065FB0028E7D000239C
:102C700083F31188BDE8F0812DE9F0411F46044639
:102C80000D461646202383F3118800F1100823789F
:102C9000042B0ED029462046FFF704FE48B12046FB
:102CA00032462946FFF716FE002080F31188BDE862
:102CB000F0813946404600F03DFB0028E7D0002374
:102CC00083F31188BDE8F081F8B51546826806697E
:102CD000AA420B46816938BF8568761AB542044618
:102CE00007D218462A46FEF767FBA3692B44A36167
:102CF0000DE011D932461846FEF75EFBAF1B3A468F
:102D0000E1683044FEF758FBE2683A44A261A368E8
:102D10005B1BA3602846F8BD18462A46FEF74CFB0D
:102D2000E368E4E783682DE9F041044693421546E1
:102D3000266938BF85684069361AB5420F4606D203
:102D40002A46FEF739FB63692B4463610DE012D913
:102D50003246A5EB0608FEF72FFB4246B919E0689C
:102D6000FEF72AFBE26842446261A3685B1BA36032
:102D70002846BDE8F0812A46FEF71EFBE368E4E73B
:102D800010B50A440024C361029B00604060846067
:102D9000C160816141610261036210BD08B5826951
:102DA0004369934201D1826882B9826801328260AC
:102DB0005A1C42611970426903699A4201D3C3687F
:102DC0004361002100F0C6FA002008BD4FF0FF303B
:102DD00008BD000070B5202304460E4683F3118819
:102DE000A568A5B1A368A269013BA360531CA361B8
:102DF00015782269934224BFE368A361E3690BB1AC
:102E000020469847002383F31188284670BD314639
:102E1000204600F08FFA0028E2DA85F3118870BDB1
:102E20002DE9F74F05460F4690469A46D0F81C907C
:102E3000202686F311884FF0000B144664B1224619
:102E400039462846FFF740FF034668B951462846F1
:102E500000F070FA0028F1D0002383F31188A8EB6A
:102E6000040003B0BDE8F08FB9F1000F03D001906A
:102E70002846C847019B8BF31188E41A1F4486F348
:102E80001188DBE7C16081614161C3611144009B2E
:102E9000006040608260016103627047F8B50446DB
:102EA0000E461746202383F31188A568A5B1A368B1
:102EB000013BA36063695A1C62611E7023696269E9
:102EC0009A4224BFE3686361E3690BB120469847E7
:102ED000002080F31188F8BD3946204600F02AFA18
:102EE0000028E2DA85F31188F8BD000083694269A1
:102EF0009A4210B501D182687AB982680132826043
:102F00005A1C82611C7803699A4201D3C3688361A9
:102F1000002100F01FFA204610BD4FF0FF3010BD19
:102F20002DE9F74F05460F4690469A46D0F81C907B
:102F3000202686F311884FF0000B144664B1224618
:102F400039462846FFF7EEFE034668B95146284643
:102F500000F0F0F90028F1D0002383F31188A8EBEA
:102F6000040003B0BDE8F08FB9F1000F03D0019069
:102F70002846C847019B8BF31188E41A1F4486F347
:102F80001188DBE7026843681143016003B1184709
:102F9000704700001430FFF743BF00004FF0FF33CD
:102FA0001430FFF73DBF00003830FFF7B9BF000015
:102FB0004FF0FF333830FFF7B3BF00001430FFF796
:102FC00009BF00004FF0FF311430FFF703BF0000CE
:102FD0003830FFF763BF00004FF0FF323830FFF7A3
:102FE0005DBF000000207047FFF78ABD044B0360FF
:102FF000002343608360C36001230374704700BFF4
:103000009042000838B5C36904460D461BB9042137
:103010000844FFF7B7FF294604F11400FFF7BEFE8E
:10302000002806DA201D4FF48061BDE83840FFF724
:10303000A9BF38BD024B00221B605B609A607047DD
:10304000E4240020002303748268054B1B68996800
:103050009142FBD25A68036042601060586070472A
:10306000E424002008B5202383F31188037C032B7C
:1030700005D0042B0DD02BB983F3118808BD43690B
:1030800000221A604FF0FF334361FFF7DBFF00239C
:10309000F2E790E80C001A6002685360F2E7000063
:1030A000002303748268054B1B6899689142FBD822
:1030B0005A6803604260106058607047E424002042
:1030C000054B19690874186802681A605360186122
:1030D00001230374FDF798BAE424002030B54B1C9B
:1030E00087B005460A4C10D023690A4A01A800F0AF
:1030F00059F92846FFF7E4FF049B13B101A800F03B
:103100006BF92369586907B030BDFFF7D9FFF8E7BD
:10311000E42400206530000838B50C4D41612B696E
:1031200081689A689142044603D8BDE83840FFF7A9
:1031300089BF1846FFF786FF01232C6101462374DF
:103140002046BDE83840FDF75FBA00BFE424002008
:10315000044B1A681B6990689B68984294BF0020D2
:1031600001207047E424002010B5084C2368206932
:103170001A6822605460012223611A74FFF790FFDD
:1031800001462069BDE81040FDF73EBAE424002066
:1031900008B5FFF7DDFF18B1BDE80840FFF7E4BF51
:1031A00008BD0000FEE7000010B5174CFFF742FF16
:1031B00000F0EAF880221549204600F06FF801235C
:1031C00044F8180C0374124B124AD96821F4E061D8
:1031D0000904090C0A431049DA60CA6842F0807297
:1031E000CA600E490A6842F001020A601022DA77CA
:1031F000202283F82220002383F3118862B6084836
:10320000BDE8104000F06CB80C250020B842000862
:1032100000ED00E00003FA05F0ED00E0001000E032
:10322000C0420008F8B50F4C226A013222622246E1
:1032300052F8141F9142154606D08B68013B8B60F3
:10324000202663699A6802B1F8BD1968DF68DA6000
:103250004D60616182F311881869B84786F311885F
:10326000EFE700BFE4240020EFF3118020B9EFF373
:103270000583202282F311887047000010B558B9E9
:10328000EFF30584C4F3080414B180F3118810BD72
:10329000FFF77EFF84F3118810BD000082600222D8
:1032A00002740022427470478368A3F17C0243F8E1
:1032B0000C2C026943F83C2C426943F8382C074A2D
:1032C00043F81C2CC26843F8102C022203F8082C87
:1032D000002203F8072CA3F118007047210600080C
:1032E00010B5202383F31188FFF7DEFF0021044689
:1032F000FFF712FF002383F31188204610BD000062
:10330000024B1B6958610F20FFF7DABEE42400204E
:10331000202383F31188FFF7F3BF000008B50146AF
:10332000202383F311880820FFF7D8FE002383F3BE
:10333000118808BD49B1064B42681B6918605A6084
:10334000136043600420FFF7C9BE4FF0FF307047A1
:10335000E42400200368984206D01A680260506096
:1033600059611846FFF76EBE7047000038B5044635
:103370000D462068844200D138BD036823605C603C
:103380004561FFF75FFEF4E7054B03F114025A6154
:103390009A614FF0FF32DA6100221A62704700BF73
:1033A000E424002010B5C2600A4A036153699C6896
:1033B000A1420CD85C680360446020605860816062
:1033C0009868411A99604FF0FF33D36110BD091B13
:1033D0001B68ECE7E4240020036881689A680A44CB
:1033E0009A604268136003685A600023C360024B0E
:1033F0004FF0FF32DA617047E4240020002070476C
:10340000FEE70000704700004FF0FF3070470000FB
:10341000BFF34F8F024AD368DB07FCD4704700BF6D
:103420000020024008B5074B1B7853B9FFF7F0FFA7
:10343000054B1A69120641BF044A5A6002F18832EC
:103440005A6008BD70260020002002402301674515
:1034500008B5054B1B7833B9FFF7DAFF034A136948
:1034600043F08003136108BD702600200020024055
:103470007F289ABF00F58030C0020020704700000E
:103480004FF4006070470000802070477F2808B527
:103490000BD8FFF7EDFF00F500630268013204D19D
:1034A00004308342F9D1012008BD002008BD00008E
:1034B0007F2838B5044624D800F0B6F8124D2860AD
:1034C000FFF7A6FFFFF7AEFF104BF322DA600222F0
:1034D0001A612046FFF7CCFF58611A6942F040029A
:1034E0001A61FFF795FF4FF4006100F0FBF8FFF75A
:1034F000AFFF00F099F828602046BDE83840FFF79C
:10350000C5BF002038BD00BF742600200020024047
:103510002DE9F84312F00103144606D0204B40F287
:103520004B221A600020BDE8F88385181D4A954299
:1035300004D91B4A4FF414711160F3E7FFF772FFCF
:10354000FFF766FFDFF86C80451A4FF00109012C88
:1035500005EB01060F4604D8FFF77AFF0120BDE80E
:10356000F883C8F8109031F8023B3380FFF750FF22
:103570000020C8F8100033883A889BB29A420DD0D8
:10358000074B40F267221A60074B1E60074B1C6016
:10359000074B1F60FFF75CFFBDE8F883023CD6E7EE
:1035A0006C260020FFFF030860260020682600200C
:1035B0006426002000200240084908B50B7828B195
:1035C00053B9FFF72FFF01230B7008BD23B1BDE8EE
:1035D00008400870FFF73CBF08BD00BF7026002000
:1035E00038B5FFF741FE0D4B0D4A1C6A11684FF4C8
:1035F0007A7303FB04F38B420A49D1E9004504D2F4
:10360000003445F10105C1E90045E41845F1000524
:103610001360FFF733FE2046294638BDE42400201E
:10362000782600208026002008B5FFF7D9FF4FF448
:103630007A720023FCF7CCFD08BD00BF10B5024430
:10364000064B0439D2B2904200D110BD441C00B2E6
:1036500053F8200041F8040FE0B2F4E7502800408E
:10366000104B30B51C6A240407D41C6A44F440741F
:103670001C621C6A44F400441C620B4C236843F433
:10368000807323600244094B0439D2B2904200D1C6
:1036900030BD441C00B251F8045F43F82050E0B242
:1036A000F4E700BF001002400070004050280040C6
:1036B00007B5012201A90020FFF7C0FF019803B060
:1036C0005DF804FB13B50446FFF7F2FFA04206D0F5
:1036D00002A9012241F8044D0020FFF7C1FF02B00A
:1036E00010BD000070470000074B45F255521A60AC
:1036F00002225A6040F6FF729A604CF6CC421A6081
:10370000024B01221A7070470030004089260020C9
:10371000034B1B781BB1034B4AF6AA221A60704771
:103720008926002000300040034B1B689B0042BFED
:10373000024B01221A707047241002408826002094
:10374000024B4FF080721A60704700BF2410024095
:10375000014B1878704700BF88260020064A53683E
:1037600023F001035360EFF30983683383F309887F
:10377000002383F31188704730EF00E010B5202359
:1037800083F31188104B5B6813F4006318D0F1EEDB
:10379000103AEFF309844FF0807344F84C3C0B4B24
:1037A000DB6844F8083CA4F1680383F30988FFF759
:1037B000CFFC18B1064B44F8503C10BD054BFAE75E
:1037C00083F3118810BD00BF00ED00E030EF00E092
:1037D000310600083406000870470000FEE70000CC
:1037E000084A094B09498B4204D3094A00219342F4
:1037F00005D3704752F8040F43F8040BF3E743F87E
:10380000041BF4E740440008902600209026002086
:10381000902600204B6843608B688360CB68C36050
:103820000B6943614B6903628B6943620B680360F8
:103830007047000008B5194B9A6A42F4FC029A627C
:103840009A6A22F4FC029A629A6A5A6942F4FC0269
:103850005A61134A5B6911464FF09040FFF7DAFF57
:10386000104802F11C01FFF7D5FF0F4802F13801A3
:10387000FFF7D0FF0D4802F15401FFF7CBFF0C48D2
:1038800002F17001FFF7C6FF0A4802F18C01FFF751
:10389000C1FFBDE8084000F065B800BF001002405D
:1038A000E04200080004004800080048000C0048FE
:1038B000001000480014004808B500F08FF9FFF729
:1038C00073FCBDE80840FFF72FBF00007047000001
:1038D00010B5214CA26A62F4FC02A262A26A02F450
:1038E000FC02A2624FF0FF31A26A226921612269C3
:1038F000002222612069E068E160E168E260E1683D
:10390000E169164841F08051E161E169016841F4E3
:1039100080710160216A01F44071B1F5407F1EBFE2
:103920004FF4803323622262236A1B0407D4236A84
:1039300043F440732362236A43F40043236200F09C
:103940002DF9A369064A43F00103A361A369136833
:1039500043F02003136010BD0010024000700040CF
:10396000000001401C4B1A6842F001021A601A68FC
:103970009007FCD55A6822F003025A605A6812F088
:103980000C02FBD1196801F0F90119605A601A683C
:1039900042F480321A601A689103FCD50F4A5A60CB
:1039A0004FF40452DA6230221A631A6842F08072CD
:1039B0001A601A689201FCD5094A122111605A68EE
:1039C00042F002025A605A6802F00C02082AFAD148
:1039D0001A6B1A63704700BF0010024000241D00DC
:1039E00000200240084A08B5536911680B4003F0F3
:1039F0000103536123B1054A13680BB1506898471E
:103A0000BDE80840FFF7BABE000401400C230020C7
:103A1000084A08B5536911680B4003F0020353616B
:103A200023B1054A93680BB1D0689847BDE80840B8
:103A3000FFF7A4BE000401400C230020084A08B58B
:103A4000536911680B4003F00403536123B1054A25
:103A500013690BB150699847BDE80840FFF78EBE67
:103A6000000401400C230020084A08B5536911687E
:103A70000B4003F00803536123B1054A93690BB16E
:103A8000D0699847BDE80840FFF778BE00040140C0
:103A90000C230020084A08B5536911680B4003F055
:103AA0001003536123B1054A136A0BB1506A98475A
:103AB000BDE80840FFF762BE000401400C2300206F
:103AC000174B10B55C691A68144004F478725A6197
:103AD000A30604D5134A936A0BB1D06A98476006CF
:103AE00004D5104A136B0BB1506B9847210604D5CF
:103AF0000C4A936B0BB1D06B9847E20504D5094A89
:103B0000136C0BB1506C9847A30504D5054A936C10
:103B10000BB1D06C9847BDE81040FFF72FBE00BF37
:103B2000000401400C2300201A4B10B55C691A6890
:103B3000144004F47C425A61620504D5164A136DA0
:103B40000BB1506D9847230504D5134A936D0BB103
:103B5000D06D9847E00404D50F4A136E0BB1506E38
:103B60009847A10404D50C4A936E0BB1D06E9847C8
:103B7000620404D5084A136F0BB1506F98472304B1
:103B800004D5054A936F0BB1D06F9847BDE810403C
:103B9000FFF7F4BD000401400C230020062108B506
:103BA0000846FEF7FFFF06210720FEF7FBFF062170
:103BB0000820FEF7F7FF06210920FEF7F3FF062194
:103BC0000A20FEF7EFFF06211720FEF7EBFF062184
:103BD0002820BDE80840FEF7E5BF000008B5FFF764
:103BE00077FEFEF7CFFEFEF7FBFFFFF7FDF9FFF7CD
:103BF0006DFEBDE8084000F001B8000000F00EB80E
:103C000008B5202383F31188FFF70CFB002383F30F
:103C10001188BDE80840FFF7B1BD0000054B064A1A
:103C20005A6000229A6007221A6008210B20FEF7D2
:103C3000CFBF00BF10E000E03F1901001FB51C46D8
:103C4000094B1B680546D86852B1084B02928DE8B3
:103C50000A0022462B460649FDF718FC00F042F800
:103C6000044B1A46F2E700BF1011002088430008F9
:103C700095430008143E000810B5013902449042F3
:103C800001D1002010BD10F8013B11F8014FA342F3
:103C9000F5D0181B10BD00002DE9F84307468846F3
:103CA00091461E468BB10D46A8EB0500B54207EBC9
:103CB000000402D20020BDE8F8833246494620467F
:103CC000FFF7DAFF18B1013DEEE7BDE8F8832046C3
:103CD000BDE8F883034611F8012B03F8012B002AF5
:103CE000F9D1704708B5062000F02CF80120FFF745
:103CF00087FB00001F2938B504460D4604D916235A
:103D000003604FF0FF3038BD426C12B152F82130E1
:103D10004BB9204600F030F82A4601462046BDE85F
:103D2000384000F017B8012B0AD0591C03D11623D4
:103D30000360012038BD002442F8254028469847FA
:103D4000002038BD024B01461868FFF7D3BF00BF03
:103D50001011002038B5074C0023054608461146CF
:103D60002360FFF751FB431C02D1236803B12B6092
:103D700038BD00BF8C260020FFF740BB40A2E4F115
:103D8000646891064E6F20617070207369670A0045
:103D9000426164206677206C656E677468202575C3
:103DA0000A0042616420626F6172645F6964202569
:103DB000752073686F756C642062652025750A0034
:103DC0004261642066772064657363726970746F02
:103DD00072206C656E6774682025750A0042616404
:103DE0002061707020435243203078253038783A73
:103DF000307825303878203078253038783A307867
:103E0000253038780A00476F6F64206669726D77D5
:103E10006172650A00000000726563656976656419
:103E20005F756E697175655F69645F6C656E203C76
:103E30002055415643414E5F50524F544F434F4CD3
:103E40005F44594E414D49435F4E4F44455F49449D
:103E50005F414C4C4F434154494F4E5F554E495181
:103E600055455F49445F4D41585F4C454E47544866
:103E7000002E2E2F2E2E2F546F6F6C732F41505FFC
:103E8000426F6F746C6F616465722F63616E2E6335
:103E9000707000616C6C6F63617465645F6E6F64F9
:103EA000655F6964203C3D20313237006F72672EB8
:103EB0006172647570696C6F742E61705F70657289
:103EC0006970685F67707300766F69642068616EFF
:103ED000646C655F616C6C6F636174696F6E5F7257
:103EE0006573706F6E73652843616E617264496EAD
:103EF0007374616E63652A2C2043616E6172645233
:103F0000785472616E736665722A290063616E610E
:103F10007264496E6974000063616E617264536516
:103F2000744C6F63616C4E6F64654944000000001F
:103F300063616E61726448616E646C65527846724A
:103F4000616D650063616E6172644465636F646591
:103F50005363616C6172000063616E617264456EEF
:103F6000636F64655363616C61720000696E6372B4
:103F7000656D656E745472616E7366657249440056
:103F8000656E717565756554784672616D6573000F
:103F900070757368547851756575650070726570D9
:103FA000617265466F724E6578745472616E7366A5
:103FB00065720000636F7079426974417272617951
:103FC000000000006465736361747465725472610B
:103FD0006E736665725061796C6F616400000000F9
:103FE00066726565426C6F636B0000006269745FA6
:103FF0006C656E677468203E20300072656D616983
:104000006E696E675F62697473203E203000696E6E
:104010007075745F6269745F6F6666736574203E65
:104020003D20626C6F636B5F6269745F6F6666737D
:10403000657400626C6F636B5F656E645F62697468
:104040005F6F6666736574203E20626C6F636B5FA2
:104050006269745F6F66667365740072656D61692D
:104060006E696E675F6269745F6C656E6774682005
:104070003C3D2072656D61696E696E675F6269744F
:104080007300696E7075745F6269745F6F666673E2
:104090006574203C3D207472616E736665722D3EBE
:1040A0007061796C6F61645F6C656E202A203800E6
:1040B0006F75747075745F6269745F6F666673653F
:1040C00074203C3D2036340072656D61696E696E06
:1040D000675F6269745F6C656E677468203D3D2040
:1040E000300028726573756C74203E2030292026BC
:1040F000262028726573756C74203C3D2036342967
:104100002026262028726573756C74203C3D206241
:1041100069745F6C656E6774682900006465737408
:10412000696E6174696F6E20213D202828766F6961
:1041300064202A2930290076616C756520213D2094
:104140002828766F6964202A293029006F666673F3
:1041500065745F77697468696E5F626C6F636B200A
:104160003C2028333255202D205F5F6275696C74C6
:10417000696E5F6F66667365746F66202843616E53
:10418000617264427566666572426C6F636B2C2067
:1041900064617461292900006F75745F696E732012
:1041A000213D202828766F6964202A2930290000C3
:1041B0007372635F6C656E203E2030550000000016
:1041C0002863616E5F696420262030783146464658
:1041D000464646465529203D3D2063616E5F696431
:1041E00000000000616C6C6F6361746F722D3E7330
:1041F0007461746973746963732E63757272656E2A
:10420000745F75736167655F626C6F636B73203E8B
:10421000203000007472616E736665725F6964209D
:10422000213D202828766F6964202A293029000042
:1042300073746174652D3E6275666665725F626C4B
:104240006F636B73203D3D202828766F6964202AB8
:10425000293029002E2E2F2E2E2F6D6F64756C6540
:10426000732F6C696263616E6172642F63616E614A
:1042700072642E63006974656D2D3E6672616D65B2
:104280002E646174615F6C656E203E20300000001A
:1042900000000000B12F00089D2F0008D92F000852
:1042A000C52F0008D12F0008BD2F0008A92F000836
:1042B000952F0008E52F00086D61696E0000000071
:1042C000D8420008282500206026002001000000B8
:1042D000A53100080000000069646C650000000062
:1042E000A001A82A00000000FAAABEAA50001400EB
:1042F000EFFF000000770000709709000100000048
:1043000000000000AAAAAAAA01000000FFFF000006
:10431000000000000000000000000000000000009D
:10432000AAAAAAAA00000000FFFF000000000000E7
:10433000000000000000000000000000AAAAAAAAD5
:1043400000000000FFFF000000000000000000006F
:104350000000000000000000AAAAAAAA00000000B5
:10436000FFFF00000000000000000000000000004F
:1043700000000000AAAAAAAA00000000FFFF000097
:1043800000000000000000002C2066756E63746958
:104390006F6E3A2000617373657274696F6E2022CC
:1043A000257322206661696C65643A2066696C65D4
:1043B00020222573222C206C696E652025642573CC
:1043C00025730A003CBEFF7F0100000000000000D2
:1043D0006400000000000000FE2A0100D20400007A
:1043E0001411002000000000000000000000000088
:1043F00000000000000000000000000000000000BD
:1044000000000000000000000000000000000000AC
:10441000000000000000000000000000000000009C
:10442000000000000000000000000000000000008C
:10443000000000000000000000000000000000007C
:044440000000000078
:00000001FF
